{
  "fileName": "Factory.sol",
  "contractName": "GovernorDeployer",
  "source": "pragma solidity ^0.5.16;\n\nimport \"./GovernorAlpha.sol\";\nimport \"./Timelock.sol\";\nimport \"./VoteToken.sol\";\n\ninterface VoteTokenDeployerInterface {\n    function getPriorVotes(address account, uint256 blockNumber)\n        external\n        view\n        returns (uint96);\n}\n\ncontract GovernanceDeployer {\n    TimelockDeployer public timelockDeployer;\n    VoteTokenDeployer public voteTokenDeployer;\n    GovernorDeployer public governorDeployer;\n\n    bool initialized = false;\n\n    event governanceContractCreated(address contractAddress);\n    event governorDeployerCreated(address timelockDeployer, address voteTokenDeployer, address governorDeployer);\n\n    constructor() public {\n        timelockDeployer = new TimelockDeployer();\n        voteTokenDeployer = new VoteTokenDeployer();\n        governorDeployer = new GovernorDeployer();\n        emit governorDeployerCreated(address(timelockDeployer), address(voteTokenDeployer), address(governorDeployer));\n    }\n\n    function createGovernance(\n        address _guardian,\n        string memory _governorName,\n        uint256 _delay,\n        uint256 _gracePeriod,\n        uint256 _minDelay,\n        uint256 _maxDelay,\n        string memory _voteTokenName,\n        string memory _voteTokenSymbol\n    ) public returns (GovernorAlpha _governanceContract) {\n        Timelock _timelock = timelockDeployer.createTimelock(\n            _guardian,\n            _delay,\n            _gracePeriod,\n            _minDelay,\n            _maxDelay\n        );\n        VoteToken _voteToken = voteTokenDeployer.createStandardVoteToken(\n            _guardian,\n            _voteTokenName,\n            _voteTokenSymbol\n        );\n        GovernorAlpha _newGovernor = governorDeployer.createGovernanceContract(\n            address(_timelock),\n            address(_voteToken),\n            _guardian,\n            _governorName\n        );\n\n        emit governanceContractCreated(address(_newGovernor));\n        return _newGovernor;\n    }\n}\n\ncontract GovernorDeployer {\n    event governanceContractCreated(address governanceContractAddress);\n\n    function createGovernanceContract(\n        address _timelock,\n        address _voteToken,\n        address _guardian,\n        string memory _governorName\n    ) public returns (GovernorAlpha _governorAlpha) {\n        GovernorAlpha _newGovernor = new GovernorAlpha(\n            _timelock,\n            _voteToken,\n            _guardian,\n            _governorName\n        );\n        emit governanceContractCreated(address(_newGovernor));\n        return _newGovernor;\n    }\n}\n\ncontract TimelockDeployer {\n    event timelockCreated(address timelockAddress);\n\n    function createTimelock(\n        address _admin,\n        uint256 _delay,\n        uint256 _gracePeriod,\n        uint256 _minDelay,\n        uint256 _maxDelay\n    ) public returns (Timelock timelock) {\n        Timelock _timelock = new Timelock(\n            _admin,\n            _delay,\n            _gracePeriod,\n            _minDelay,\n            _maxDelay\n        );\n        emit timelockCreated(address(_timelock));\n        return _timelock;\n    }\n}\n\ncontract VoteTokenDeployer {\n    event voteTokenCreated(address voteTokenAddress);\n\n    function createStandardVoteToken(\n        address account,\n        string memory _name,\n        string memory _symbol\n    ) public returns (VoteToken _voteToken) {\n        return _createVoteToken(account, _name, _symbol, 18, 10000000e18);\n    }\n\n    function createCustomVoteToken(\n        address account,\n        string memory _name,\n        string memory _symbol,\n        uint8 _decimals,\n        uint256 _totalSupply\n    ) public returns (VoteToken _voteToken) {\n        return\n            _createVoteToken(account, _name, _symbol, _decimals, _totalSupply);\n    }\n\n    function _createVoteToken(\n        address account,\n        string memory _name,\n        string memory _symbol,\n        uint8 _decimals,\n        uint256 _totalSupply\n    ) internal returns (VoteToken _voteTokenAddress) {\n        VoteToken _voteToken = new VoteToken(\n            account,\n            _name,\n            _symbol,\n            _decimals,\n            _totalSupply\n        );\n        emit voteTokenCreated(address(_voteToken));\n        return _voteToken;\n    }\n}\n",
  "sourcePath": "contracts/Factory.sol",
  "abi": [
    {
      "anonymous": false,
      "inputs": [
        {
          "indexed": false,
          "internalType": "address",
          "name": "governanceContractAddress",
          "type": "address"
        }
      ],
      "name": "governanceContractCreated",
      "type": "event"
    },
    {
      "constant": false,
      "inputs": [
        {
          "internalType": "address",
          "name": "_timelock",
          "type": "address"
        },
        {
          "internalType": "address",
          "name": "_voteToken",
          "type": "address"
        },
        {
          "internalType": "address",
          "name": "_guardian",
          "type": "address"
        },
        {
          "internalType": "string",
          "name": "_governorName",
          "type": "string"
        }
      ],
      "name": "createGovernanceContract",
      "outputs": [
        {
          "internalType": "contract GovernorAlpha",
          "name": "_governorAlpha",
          "type": "address"
        }
      ],
      "payable": false,
      "stateMutability": "nonpayable",
      "type": "function"
    }
  ],
  "bytecode": "0x608060405234801561001057600080fd5b50615bbd806100206000396000f3fe608060405234801561001057600080fd5b506004361061002b5760003560e01c8063b52104c814610030575b600080fd5b6101496004803603608081101561004657600080fd5b81019080803573ffffffffffffffffffffffffffffffffffffffff169060200190929190803573ffffffffffffffffffffffffffffffffffffffff169060200190929190803573ffffffffffffffffffffffffffffffffffffffff169060200190929190803590602001906401000000008111156100c357600080fd5b8201836020820111156100d557600080fd5b803590602001918460018302840111640100000000831117156100f757600080fd5b91908080601f016020809104026020016040519081016040528093929190818152602001838380828437600081840152601f19601f82011690508083019250505050505050919291929050505061018b565b604051808273ffffffffffffffffffffffffffffffffffffffff1673ffffffffffffffffffffffffffffffffffffffff16815260200191505060405180910390f35b6000808585858560405161019e90610334565b808573ffffffffffffffffffffffffffffffffffffffff1673ffffffffffffffffffffffffffffffffffffffff1681526020018473ffffffffffffffffffffffffffffffffffffffff1673ffffffffffffffffffffffffffffffffffffffff1681526020018373ffffffffffffffffffffffffffffffffffffffff1673ffffffffffffffffffffffffffffffffffffffff16815260200180602001828103825283818151815260200191508051906020019080838360005b83811015610271578082015181840152602081019050610256565b50505050905090810190601f16801561029e5780820380516001836020036101000a031916815260200191505b5095505050505050604051809103906000f0801580156102c2573d6000803e3d6000fd5b5090507f60f41ae683bea74d33893010f8e29f9f2e15f6433b48bc89c39c2603be6e00ea81604051808273ffffffffffffffffffffffffffffffffffffffff1673ffffffffffffffffffffffffffffffffffffffff16815260200191505060405180910390a180915050949350505050565b615847806103428339019056fe60806040523480156200001157600080fd5b50604051620058473803806200584783398181016040526200003791908101906200027e565b80600090805190602001906200004f9291906200015c565b5083600160006101000a81548173ffffffffffffffffffffffffffffffffffffffff021916908373ffffffffffffffffffffffffffffffffffffffff16021790555082600260006101000a81548173ffffffffffffffffffffffffffffffffffffffff021916908373ffffffffffffffffffffffffffffffffffffffff16021790555081600360006101000a81548173ffffffffffffffffffffffffffffffffffffffff021916908373ffffffffffffffffffffffffffffffffffffffff1602179055507f46fca5570ba12fac7505f45a1279762c1245b2413c28c78b1e72f4c564a065a5308585856040516200014a949392919062000314565b60405180910390a15050505062000440565b828054600181600116156101000203166002900490600052602060002090601f016020900481019282601f106200019f57805160ff1916838001178555620001d0565b82800160010185558215620001d0579182015b82811115620001cf578251825591602001919060010190620001b2565b5b509050620001df9190620001e3565b5090565b6200020891905b8082111562000204576000816000905550600101620001ea565b5090565b90565b6000815190506200021c8162000426565b92915050565b600082601f8301126200023457600080fd5b81516200024b62000245826200038f565b62000361565b915080825260208301602083018583830111156200026857600080fd5b62000275838284620003f0565b50505092915050565b600080600080608085870312156200029557600080fd5b6000620002a5878288016200020b565b9450506020620002b8878288016200020b565b9350506040620002cb878288016200020b565b925050606085015167ffffffffffffffff811115620002e957600080fd5b620002f78782880162000222565b91505092959194509250565b6200030e81620003bc565b82525050565b60006080820190506200032b600083018762000303565b6200033a602083018662000303565b62000349604083018562000303565b62000358606083018462000303565b95945050505050565b6000604051905081810181811067ffffffffffffffff821117156200038557600080fd5b8060405250919050565b600067ffffffffffffffff821115620003a757600080fd5b601f19601f8301169050602081019050919050565b6000620003c982620003d0565b9050919050565b600073ffffffffffffffffffffffffffffffffffffffff82169050919050565b60005b8381101562000410578082015181840152602081019050620003f3565b8381111562000420576000848401525b50505050565b6200043181620003bc565b81146200043d57600080fd5b50565b6153f780620004506000396000f3fe60806040526004361061019c5760003560e01c8063452a9320116100ec578063d33219b41161008a578063ddf0b00911610064578063ddf0b009146105b1578063deaaa7cc146105da578063e23a9a5214610605578063fe0d94c1146106425761019c565b8063d33219b41461051e578063da35c66414610549578063da95691a146105745761019c565b80637bdbe4d0116100c65780637bdbe4d01461048857806391500671146104b3578063b58131b0146104dc578063b9a61961146105075761019c565b8063452a93201461041d5780634634c61f14610448578063760fbc13146104715761019c565b806320606b7011610159578063328dd98211610133578063328dd9821461034c5780633932abb11461038c5780633e4f49e6146103b757806340e58ee5146103f45761019c565b806320606b70146102cd57806321f43e42146102f857806324bc1a64146103215761019c565b8063013cf08b146101a157806302a251a3146101e657806306fdde031461021157806315373e3d1461023c578063160d66ae1461026557806317977c6114610290575b600080fd5b3480156101ad57600080fd5b506101c860048036036101c39190810190613462565b61065e565b6040516101dd99989796959493929190614da6565b60405180910390f35b3480156101f257600080fd5b506101fb6106e6565b6040516102089190614cf9565b60405180910390f35b34801561021d57600080fd5b506102266106f0565b6040516102339190614a1a565b60405180910390f35b34801561024857600080fd5b50610263600480360361025e91908101906134f0565b61078e565b005b34801561027157600080fd5b5061027a61079d565b60405161028791906149e4565b60405180910390f35b34801561029c57600080fd5b506102b760048036036102b2919081019061327b565b6107c3565b6040516102c49190614cf9565b60405180910390f35b3480156102d957600080fd5b506102e26107db565b6040516102ef91906148ed565b60405180910390f35b34801561030457600080fd5b5061031f600480360361031a91908101906132a4565b6107f2565b005b34801561032d57600080fd5b50610336610981565b6040516103439190614cf9565b60405180910390f35b34801561035857600080fd5b50610373600480360361036e9190810190613462565b610993565b604051610383949392919061488c565b60405180910390f35b34801561039857600080fd5b506103a1610c70565b6040516103ae9190614cf9565b60405180910390f35b3480156103c357600080fd5b506103de60048036036103d99190810190613462565b610c79565b6040516103eb91906149ff565b60405180910390f35b34801561040057600080fd5b5061041b60048036036104169190810190613462565b610e67565b005b34801561042957600080fd5b5061043261120d565b60405161043f91906146b9565b60405180910390f35b34801561045457600080fd5b5061046f600480360361046a919081019061352c565b611233565b005b34801561047d57600080fd5b506104866113dc565b005b34801561049457600080fd5b5061049d6114b0565b6040516104aa9190614cf9565b60405180910390f35b3480156104bf57600080fd5b506104da60048036036104d591908101906132a4565b6114b9565b005b3480156104e857600080fd5b506104f1611643565b6040516104fe9190614cf9565b60405180910390f35b34801561051357600080fd5b5061051c611655565b005b34801561052a57600080fd5b50610533611769565b60405161054091906149c9565b60405180910390f35b34801561055557600080fd5b5061055e61178f565b60405161056b9190614cf9565b60405180910390f35b34801561058057600080fd5b5061059b600480360361059691908101906132e0565b611795565b6040516105a89190614cf9565b60405180910390f35b3480156105bd57600080fd5b506105d860048036036105d39190810190613462565b611d86565b005b3480156105e657600080fd5b506105ef6120df565b6040516105fc91906148ed565b60405180910390f35b34801561061157600080fd5b5061062c600480360361062791908101906134b4565b6120f6565b6040516106399190614cde565b60405180910390f35b61065c60048036036106579190810190613462565b6121d8565b005b60056020528060005260406000206000915090508060000154908060010160009054906101000a900473ffffffffffffffffffffffffffffffffffffffff169080600201549080600701549080600801549080600901549080600a01549080600b0160009054906101000a900460ff169080600b0160019054906101000a900460ff16905089565b6000614380905090565b60008054600181600116156101000203166002900480601f0160208091040260200160405190810160405280929190818152602001828054600181600116156101000203166002900480156107865780601f1061075b57610100808354040283529160200191610786565b820191906000526020600020905b81548152906001019060200180831161076957829003601f168201915b505050505081565b610799338383612426565b5050565b600260009054906101000a900473ffffffffffffffffffffffffffffffffffffffff1681565b60066020528060005260406000206000915090505481565b6040516107e79061468f565b604051809103902081565b600360009054906101000a900473ffffffffffffffffffffffffffffffffffffffff1673ffffffffffffffffffffffffffffffffffffffff163373ffffffffffffffffffffffffffffffffffffffff1614610882576040517f08c379a000000000000000000000000000000000000000000000000000000000815260040161087990614ade565b60405180910390fd5b600160009054906101000a900473ffffffffffffffffffffffffffffffffffffffff1673ffffffffffffffffffffffffffffffffffffffff16630825f38f600160009054906101000a900473ffffffffffffffffffffffffffffffffffffffff166000856040516020016108f691906146b9565b604051602081830303815290604052856040518563ffffffff1660e01b815260040161092594939291906146fd565b600060405180830381600087803b15801561093f57600080fd5b505af1158015610953573d6000803e3d6000fd5b505050506040513d6000823e3d601f19601f8201168201806040525061097c9190810190613421565b505050565b60006954b40b1f852bda000000905090565b60608060608060006005600087815260200190815260200160002090508060030181600401826005018360060183805480602002602001604051908101604052809291908181526020018280548015610a4157602002820191906000526020600020905b8160009054906101000a900473ffffffffffffffffffffffffffffffffffffffff1673ffffffffffffffffffffffffffffffffffffffff16815260200190600101908083116109f7575b5050505050935082805480602002602001604051908101604052809291908181526020018280548015610a9357602002820191906000526020600020905b815481526020019060010190808311610a7f575b5050505050925081805480602002602001604051908101604052809291908181526020016000905b82821015610b77578382906000526020600020018054600181600116156101000203166002900480601f016020809104026020016040519081016040528092919081815260200182805460018160011615610100020316600290048015610b635780601f10610b3857610100808354040283529160200191610b63565b820191906000526020600020905b815481529060010190602001808311610b4657829003601f168201915b505050505081526020019060010190610abb565b50505050915080805480602002602001604051908101604052809291908181526020016000905b82821015610c5a578382906000526020600020018054600181600116156101000203166002900480601f016020809104026020016040519081016040528092919081815260200182805460018160011615610100020316600290048015610c465780601f10610c1b57610100808354040283529160200191610c46565b820191906000526020600020905b815481529060010190602001808311610c2957829003601f168201915b505050505081526020019060010190610b9e565b5050505090509450945094509450509193509193565b60006001905090565b60008160045410158015610c8d5750600082115b610ccc576040517f08c379a0000000000000000000000000000000000000000000000000000000008152600401610cc390614afe565b60405180910390fd5b600060056000848152602001908152602001600020905080600b0160009054906101000a900460ff1615610d04576002915050610e62565b80600701544311610d19576000915050610e62565b80600801544311610d2e576001915050610e62565b80600a01548160090154111580610d4f5750610d48610981565b8160090154105b15610d5e576003915050610e62565b600081600201541415610d75576004915050610e62565b80600b0160019054906101000a900460ff1615610d96576007915050610e62565b610e4c600160009054906101000a900473ffffffffffffffffffffffffffffffffffffffff1673ffffffffffffffffffffffffffffffffffffffff1663c1a287e26040518163ffffffff1660e01b815260040160206040518083038186803b158015610e0157600080fd5b505afa158015610e15573d6000803e3d6000fd5b505050506040513d601f19601f82011682018060405250610e39919081019061348b565b826002015461270790919063ffffffff16565b4210610e5c576006915050610e62565b60059150505b919050565b6000610e7282610c79565b9050600780811115610e8057fe5b816007811115610e8c57fe5b1415610ecd576040517f08c379a0000000000000000000000000000000000000000000000000000000008152600401610ec490614c7e565b60405180910390fd5b6000600560008481526020019081526020016000209050600360009054906101000a900473ffffffffffffffffffffffffffffffffffffffff1673ffffffffffffffffffffffffffffffffffffffff163373ffffffffffffffffffffffffffffffffffffffff1614806110375750610f43611643565b600260009054906101000a900473ffffffffffffffffffffffffffffffffffffffff1673ffffffffffffffffffffffffffffffffffffffff1663782d6fe18360010160009054906101000a900473ffffffffffffffffffffffffffffffffffffffff16610fba60014361275c90919063ffffffff16565b6040518363ffffffff1660e01b8152600401610fd792919061475c565b60206040518083038186803b158015610fef57600080fd5b505afa158015611003573d6000803e3d6000fd5b505050506040513d601f19601f8201168201806040525061102791908101906135a3565b6bffffffffffffffffffffffff16105b611076576040517f08c379a000000000000000000000000000000000000000000000000000000000815260040161106d90614bbe565b60405180910390fd5b600181600b0160006101000a81548160ff02191690831515021790555060008090505b81600301805490508110156111d057600160009054906101000a900473ffffffffffffffffffffffffffffffffffffffff1673ffffffffffffffffffffffffffffffffffffffff1663591fcdfe8360030183815481106110f557fe5b9060005260206000200160009054906101000a900473ffffffffffffffffffffffffffffffffffffffff1684600401848154811061112f57fe5b906000526020600020015485600501858154811061114957fe5b9060005260206000200186600601868154811061116257fe5b9060005260206000200187600201546040518663ffffffff1660e01b815260040161119195949392919061482b565b600060405180830381600087803b1580156111ab57600080fd5b505af11580156111bf573d6000803e3d6000fd5b505050508080600101915050611099565b507f789cf55be980739dad1d0699b93b58e806b51c9d96619bfa8fe0a28abaa7b30c836040516112009190614cf9565b60405180910390a1505050565b600360009054906101000a900473ffffffffffffffffffffffffffffffffffffffff1681565b60006040516112419061468f565b604051809103902060006040516112589190614641565b60405180910390206112686127a6565b3060405160200161127c9493929190614908565b60405160208183030381529060405280519060200120905060006040516112a2906146a4565b604051809103902087876040516020016112be9392919061494d565b604051602081830303815290604052805190602001209050600082826040516020016112eb929190614658565b6040516020818303038152906040528051906020012090506000600182888888604051600081526020016040526040516113289493929190614984565b6020604051602081039080840390855afa15801561134a573d6000803e3d6000fd5b505050602060405103519050600073ffffffffffffffffffffffffffffffffffffffff168173ffffffffffffffffffffffffffffffffffffffff1614156113c6576040517f08c379a00000000000000000000000000000000000000000000000000000000081526004016113bd90614c3e565b60405180910390fd5b6113d1818a8a612426565b505050505050505050565b600360009054906101000a900473ffffffffffffffffffffffffffffffffffffffff1673ffffffffffffffffffffffffffffffffffffffff163373ffffffffffffffffffffffffffffffffffffffff161461146c576040517f08c379a000000000000000000000000000000000000000000000000000000000815260040161146390614cbe565b60405180910390fd5b6000600360006101000a81548173ffffffffffffffffffffffffffffffffffffffff021916908373ffffffffffffffffffffffffffffffffffffffff160217905550565b6000600a905090565b600360009054906101000a900473ffffffffffffffffffffffffffffffffffffffff1673ffffffffffffffffffffffffffffffffffffffff163373ffffffffffffffffffffffffffffffffffffffff1614611549576040517f08c379a000000000000000000000000000000000000000000000000000000000815260040161154090614b5e565b60405180910390fd5b600160009054906101000a900473ffffffffffffffffffffffffffffffffffffffff1673ffffffffffffffffffffffffffffffffffffffff16633a66f901600160009054906101000a900473ffffffffffffffffffffffffffffffffffffffff166000856040516020016115bd91906146b9565b604051602081830303815290604052856040518563ffffffff1660e01b81526004016115ec94939291906146fd565b602060405180830381600087803b15801561160657600080fd5b505af115801561161a573d6000803e3d6000fd5b505050506040513d601f19601f8201168201806040525061163e91908101906133f8565b505050565b600069152d02c7e14af6800000905090565b600360009054906101000a900473ffffffffffffffffffffffffffffffffffffffff1673ffffffffffffffffffffffffffffffffffffffff163373ffffffffffffffffffffffffffffffffffffffff16146116e5576040517f08c379a00000000000000000000000000000000000000000000000000000000081526004016116dc90614a5e565b60405180910390fd5b600160009054906101000a900473ffffffffffffffffffffffffffffffffffffffff1673ffffffffffffffffffffffffffffffffffffffff16630e18b6816040518163ffffffff1660e01b8152600401600060405180830381600087803b15801561174f57600080fd5b505af1158015611763573d6000803e3d6000fd5b50505050565b600160009054906101000a900473ffffffffffffffffffffffffffffffffffffffff1681565b60045481565b600061179f611643565b600260009054906101000a900473ffffffffffffffffffffffffffffffffffffffff1673ffffffffffffffffffffffffffffffffffffffff1663782d6fe1336117f260014361275c90919063ffffffff16565b6040518363ffffffff1660e01b815260040161180f9291906146d4565b60206040518083038186803b15801561182757600080fd5b505afa15801561183b573d6000803e3d6000fd5b505050506040513d601f19601f8201168201806040525061185f91908101906135a3565b6bffffffffffffffffffffffff16116118ad576040517f08c379a00000000000000000000000000000000000000000000000000000000081526004016118a490614c1e565b60405180910390fd5b845186511480156118bf575083518651145b80156118cc575082518651145b61190b576040517f08c379a000000000000000000000000000000000000000000000000000000000815260040161190290614b9e565b60405180910390fd5b600086511415611950576040517f08c379a000000000000000000000000000000000000000000000000000000000815260040161194790614bfe565b60405180910390fd5b6119586114b0565b8651111561199b576040517f08c379a000000000000000000000000000000000000000000000000000000000815260040161199290614b7e565b60405180910390fd5b6000600660003373ffffffffffffffffffffffffffffffffffffffff1673ffffffffffffffffffffffffffffffffffffffff16815260200190815260200160002054905060008114611aaa5760006119f282610c79565b905060016007811115611a0157fe5b816007811115611a0d57fe5b1415611a4e576040517f08c379a0000000000000000000000000000000000000000000000000000000008152600401611a4590614c5e565b60405180910390fd5b60006007811115611a5b57fe5b816007811115611a6757fe5b1415611aa8576040517f08c379a0000000000000000000000000000000000000000000000000000000008152600401611a9f90614b3e565b60405180910390fd5b505b600460008154809291906001019190505550611ac46129e4565b604051806101a0016040528060045481526020013373ffffffffffffffffffffffffffffffffffffffff16815260200160008152602001898152602001888152602001878152602001868152602001611b2d611b1e610c70565b4361270790919063ffffffff16565b8152602001611b65611b3d6106e6565b611b57611b48610c70565b4361270790919063ffffffff16565b61270790919063ffffffff16565b815260200160008152602001600081526020016000151581526020016000151581525090508060056000836000015181526020019081526020016000206000820151816000015560208201518160010160006101000a81548173ffffffffffffffffffffffffffffffffffffffff021916908373ffffffffffffffffffffffffffffffffffffffff160217905550604082015181600201556060820151816003019080519060200190611c19929190612a66565b506080820151816004019080519060200190611c36929190612af0565b5060a0820151816005019080519060200190611c53929190612b3d565b5060c0820151816006019080519060200190611c70929190612b9d565b5060e082015181600701556101008201518160080155610120820151816009015561014082015181600a015561016082015181600b0160006101000a81548160ff02191690831515021790555061018082015181600b0160016101000a81548160ff021916908315150217905550905050806000015160066000836020015173ffffffffffffffffffffffffffffffffffffffff1673ffffffffffffffffffffffffffffffffffffffff168152602001908152602001600020819055507fbaab6dcd2ae57433cc1372e25bc5139c3bd664075695546fde8821591a226e388160000151338a8a8a8a8a604051611d6c9796959493929190614d14565b60405180910390a180600001519250505095945050505050565b60046007811115611d9357fe5b611d9c82610c79565b6007811115611da757fe5b14611de7576040517f08c379a0000000000000000000000000000000000000000000000000000000008152600401611dde90614a7e565b60405180910390fd5b60006005600083815260200190815260200160002090506000611eb2600160009054906101000a900473ffffffffffffffffffffffffffffffffffffffff1673ffffffffffffffffffffffffffffffffffffffff16636a42b8f86040518163ffffffff1660e01b815260040160206040518083038186803b158015611e6b57600080fd5b505afa158015611e7f573d6000803e3d6000fd5b505050506040513d601f19601f82011682018060405250611ea3919081019061348b565b4261270790919063ffffffff16565b905060008090505b82600301805490508110156120975761208a836003018281548110611edb57fe5b9060005260206000200160009054906101000a900473ffffffffffffffffffffffffffffffffffffffff16846004018381548110611f1557fe5b9060005260206000200154856005018481548110611f2f57fe5b906000526020600020018054600181600116156101000203166002900480601f016020809104026020016040519081016040528092919081815260200182805460018160011615610100020316600290048015611fcd5780601f10611fa257610100808354040283529160200191611fcd565b820191906000526020600020905b815481529060010190602001808311611fb057829003601f168201915b5050505050866006018581548110611fe157fe5b906000526020600020018054600181600116156101000203166002900480601f01602080910402602001604051908101604052809291908181526020018280546001816001161561010002031660029004801561207f5780601f106120545761010080835404028352916020019161207f565b820191906000526020600020905b81548152906001019060200180831161206257829003601f168201915b5050505050866127b3565b8080600101915050611eba565b508082600201819055507f9a2e42fd6722813d69113e7d0079d3d940171428df7373df9c7f7617cfda289283826040516120d2929190614e33565b60405180910390a1505050565b6040516120eb906146a4565b604051809103902081565b6120fe612bfd565b60056000848152602001908152602001600020600c0160008373ffffffffffffffffffffffffffffffffffffffff1673ffffffffffffffffffffffffffffffffffffffff1681526020019081526020016000206040518060600160405290816000820160009054906101000a900460ff161515151581526020016000820160019054906101000a900460ff161515151581526020016000820160029054906101000a90046bffffffffffffffffffffffff166bffffffffffffffffffffffff166bffffffffffffffffffffffff1681525050905092915050565b600560078111156121e557fe5b6121ee82610c79565b60078111156121f957fe5b14612239576040517f08c379a000000000000000000000000000000000000000000000000000000000815260040161223090614a9e565b60405180910390fd5b6000600560008381526020019081526020016000209050600181600b0160016101000a81548160ff02191690831515021790555060008090505b81600301805490508110156123ea57600160009054906101000a900473ffffffffffffffffffffffffffffffffffffffff1673ffffffffffffffffffffffffffffffffffffffff16630825f38f8360040183815481106122cf57fe5b90600052602060002001548460030184815481106122e957fe5b9060005260206000200160009054906101000a900473ffffffffffffffffffffffffffffffffffffffff1685600401858154811061232357fe5b906000526020600020015486600501868154811061233d57fe5b9060005260206000200187600601878154811061235657fe5b9060005260206000200188600201546040518763ffffffff1660e01b815260040161238595949392919061482b565b6000604051808303818588803b15801561239e57600080fd5b505af11580156123b2573d6000803e3d6000fd5b50505050506040513d6000823e3d601f19601f820116820180604052506123dc9190810190613421565b508080600101915050612273565b507f712ae1383f79ac853f8d882153778e0260ef8f03b504e2866e0593e04d2b291f8260405161241a9190614cf9565b60405180910390a15050565b6001600781111561243357fe5b61243c83610c79565b600781111561244757fe5b14612487576040517f08c379a000000000000000000000000000000000000000000000000000000000815260040161247e90614c9e565b60405180910390fd5b6000600560008481526020019081526020016000209050600081600c0160008673ffffffffffffffffffffffffffffffffffffffff1673ffffffffffffffffffffffffffffffffffffffff1681526020019081526020016000209050600015158160000160009054906101000a900460ff1615151461253b576040517f08c379a000000000000000000000000000000000000000000000000000000000815260040161253290614b1e565b60405180910390fd5b6000600260009054906101000a900473ffffffffffffffffffffffffffffffffffffffff1673ffffffffffffffffffffffffffffffffffffffff1663782d6fe18785600701546040518363ffffffff1660e01b815260040161259e92919061475c565b60206040518083038186803b1580156125b657600080fd5b505afa1580156125ca573d6000803e3d6000fd5b505050506040513d601f19601f820116820180604052506125ee91908101906135a3565b905083156126285761261b816bffffffffffffffffffffffff16846009015461270790919063ffffffff16565b8360090181905550612656565b61264d816bffffffffffffffffffffffff1684600a015461270790919063ffffffff16565b83600a01819055505b60018260000160006101000a81548160ff021916908315150217905550838260000160016101000a81548160ff021916908315150217905550808260000160026101000a8154816bffffffffffffffffffffffff02191690836bffffffffffffffffffffffff1602179055507f877856338e13f63d0c36822ff0ef736b80934cd90574a3a5bc9262c39d217c46868686846040516126f79493929190614785565b60405180910390a1505050505050565b600080828401905083811015612752576040517f08c379a000000000000000000000000000000000000000000000000000000000815260040161274990614abe565b60405180910390fd5b8091505092915050565b600061279e83836040518060400160405280601f81526020017f536166654d6174683a207375627472616374696f6e20756e646572666c6f7700815250612989565b905092915050565b6000804690508091505090565b600160009054906101000a900473ffffffffffffffffffffffffffffffffffffffff1673ffffffffffffffffffffffffffffffffffffffff1663f2b06537868686868660405160200161280a9594939291906147ca565b604051602081830303815290604052805190602001206040518263ffffffff1660e01b815260040161283c91906148ed565b60206040518083038186803b15801561285457600080fd5b505afa158015612868573d6000803e3d6000fd5b505050506040513d601f19601f8201168201806040525061288c91908101906133cf565b156128cc576040517f08c379a00000000000000000000000000000000000000000000000000000000081526004016128c390614bde565b60405180910390fd5b600160009054906101000a900473ffffffffffffffffffffffffffffffffffffffff1673ffffffffffffffffffffffffffffffffffffffff16633a66f90186868686866040518663ffffffff1660e01b815260040161292f9594939291906147ca565b602060405180830381600087803b15801561294957600080fd5b505af115801561295d573d6000803e3d6000fd5b505050506040513d601f19601f8201168201806040525061298191908101906133f8565b505050505050565b60008383111582906129d1576040517f08c379a00000000000000000000000000000000000000000000000000000000081526004016129c89190614a3c565b60405180910390fd5b5060008385039050809150509392505050565b604051806101a0016040528060008152602001600073ffffffffffffffffffffffffffffffffffffffff1681526020016000815260200160608152602001606081526020016060815260200160608152602001600081526020016000815260200160008152602001600081526020016000151581526020016000151581525090565b828054828255906000526020600020908101928215612adf579160200282015b82811115612ade5782518260006101000a81548173ffffffffffffffffffffffffffffffffffffffff021916908373ffffffffffffffffffffffffffffffffffffffff16021790555091602001919060010190612a86565b5b509050612aec9190612c30565b5090565b828054828255906000526020600020908101928215612b2c579160200282015b82811115612b2b578251825591602001919060010190612b10565b5b509050612b399190612c73565b5090565b828054828255906000526020600020908101928215612b8c579160200282015b82811115612b8b578251829080519060200190612b7b929190612c98565b5091602001919060010190612b5d565b5b509050612b999190612d18565b5090565b828054828255906000526020600020908101928215612bec579160200282015b82811115612beb578251829080519060200190612bdb929190612d44565b5091602001919060010190612bbd565b5b509050612bf99190612dc4565b5090565b604051806060016040528060001515815260200160001515815260200160006bffffffffffffffffffffffff1681525090565b612c7091905b80821115612c6c57600081816101000a81549073ffffffffffffffffffffffffffffffffffffffff021916905550600101612c36565b5090565b90565b612c9591905b80821115612c91576000816000905550600101612c79565b5090565b90565b828054600181600116156101000203166002900490600052602060002090601f016020900481019282601f10612cd957805160ff1916838001178555612d07565b82800160010185558215612d07579182015b82811115612d06578251825591602001919060010190612ceb565b5b509050612d149190612c73565b5090565b612d4191905b80821115612d3d5760008181612d349190612df0565b50600101612d1e565b5090565b90565b828054600181600116156101000203166002900490600052602060002090601f016020900481019282601f10612d8557805160ff1916838001178555612db3565b82800160010185558215612db3579182015b82811115612db2578251825591602001919060010190612d97565b5b509050612dc09190612c73565b5090565b612ded91905b80821115612de95760008181612de09190612e38565b50600101612dca565b5090565b90565b50805460018160011615610100020316600290046000825580601f10612e165750612e35565b601f016020900490600052602060002090810190612e349190612c73565b5b50565b50805460018160011615610100020316600290046000825580601f10612e5e5750612e7d565b601f016020900490600052602060002090810190612e7c9190612c73565b5b50565b600081359050612e8f8161532a565b92915050565b600082601f830112612ea657600080fd5b8135612eb9612eb482614e89565b614e5c565b91508181835260208401935060208101905083856020840282011115612ede57600080fd5b60005b83811015612f0e5781612ef48882612e80565b845260208401935060208301925050600181019050612ee1565b5050505092915050565b600082601f830112612f2957600080fd5b8135612f3c612f3782614eb1565b614e5c565b9150818183526020840193506020810190508360005b83811015612f825781358601612f6888826130d7565b845260208401935060208301925050600181019050612f52565b5050505092915050565b600082601f830112612f9d57600080fd5b8135612fb0612fab82614ed9565b614e5c565b9150818183526020840193506020810190508360005b83811015612ff65781358601612fdc888261317f565b845260208401935060208301925050600181019050612fc6565b5050505092915050565b600082601f83011261301157600080fd5b813561302461301f82614f01565b614e5c565b9150818183526020840193506020810190508385602084028201111561304957600080fd5b60005b83811015613079578161305f8882613227565b84526020840193506020830192505060018101905061304c565b5050505092915050565b60008135905061309281615341565b92915050565b6000815190506130a781615341565b92915050565b6000813590506130bc81615358565b92915050565b6000815190506130d181615358565b92915050565b600082601f8301126130e857600080fd5b81356130fb6130f682614f29565b614e5c565b9150808252602083016020830185838301111561311757600080fd5b6131228382846152c0565b50505092915050565b600082601f83011261313c57600080fd5b815161314f61314a82614f55565b614e5c565b9150808252602083016020830185838301111561316b57600080fd5b6131768382846152cf565b50505092915050565b600082601f83011261319057600080fd5b81356131a361319e82614f81565b614e5c565b915080825260208301602083018583830111156131bf57600080fd5b6131ca8382846152c0565b50505092915050565b600082601f8301126131e457600080fd5b81356131f76131f282614fad565b614e5c565b9150808252602083016020830185838301111561321357600080fd5b61321e8382846152c0565b50505092915050565b6000813590506132368161536f565b92915050565b60008151905061324b8161536f565b92915050565b60008135905061326081615386565b92915050565b6000815190506132758161539d565b92915050565b60006020828403121561328d57600080fd5b600061329b84828501612e80565b91505092915050565b600080604083850312156132b757600080fd5b60006132c585828601612e80565b92505060206132d685828601613227565b9150509250929050565b600080600080600060a086880312156132f857600080fd5b600086013567ffffffffffffffff81111561331257600080fd5b61331e88828901612e95565b955050602086013567ffffffffffffffff81111561333b57600080fd5b61334788828901613000565b945050604086013567ffffffffffffffff81111561336457600080fd5b61337088828901612f8c565b935050606086013567ffffffffffffffff81111561338d57600080fd5b61339988828901612f18565b925050608086013567ffffffffffffffff8111156133b657600080fd5b6133c2888289016131d3565b9150509295509295909350565b6000602082840312156133e157600080fd5b60006133ef84828501613098565b91505092915050565b60006020828403121561340a57600080fd5b6000613418848285016130c2565b91505092915050565b60006020828403121561343357600080fd5b600082015167ffffffffffffffff81111561344d57600080fd5b6134598482850161312b565b91505092915050565b60006020828403121561347457600080fd5b600061348284828501613227565b91505092915050565b60006020828403121561349d57600080fd5b60006134ab8482850161323c565b91505092915050565b600080604083850312156134c757600080fd5b60006134d585828601613227565b92505060206134e685828601612e80565b9150509250929050565b6000806040838503121561350357600080fd5b600061351185828601613227565b925050602061352285828601613083565b9150509250929050565b600080600080600060a0868803121561354457600080fd5b600061355288828901613227565b955050602061356388828901613083565b945050604061357488828901613251565b9350506060613585888289016130ad565b9250506080613596888289016130ad565b9150509295509295909350565b6000602082840312156135b557600080fd5b60006135c384828501613266565b91505092915050565b60006135d88383613633565b60208301905092915050565b60006135f08383613874565b905092915050565b60006136048383613a3f565b905092915050565b600061361883836145f6565b60208301905092915050565b61362d8161520c565b82525050565b61363c81615182565b82525050565b61364b81615182565b82525050565b600061365c82615058565b61366681856150e4565b935061367183614fd9565b8060005b838110156136a257815161368988826135cc565b9750613694836150b0565b925050600181019050613675565b5085935050505092915050565b60006136ba82615063565b6136c481856150f5565b9350836020820285016136d685614fe9565b8060005b8581101561371257848403895281516136f385826135e4565b94506136fe836150bd565b925060208a019950506001810190506136da565b50829750879550505050505092915050565b600061372f8261506e565b6137398185615106565b93508360208202850161374b85614ff9565b8060005b85811015613787578484038952815161376885826135f8565b9450613773836150ca565b925060208a0199505060018101905061374f565b50829750879550505050505092915050565b60006137a482615079565b6137ae8185615117565b93506137b983615009565b8060005b838110156137ea5781516137d1888261360c565b97506137dc836150d7565b9250506001810190506137bd565b5085935050505092915050565b61380081615194565b82525050565b61380f81615194565b82525050565b61381e816151a0565b82525050565b613835613830826151a0565b615302565b82525050565b60006138468261508f565b6138508185615139565b93506138608185602086016152cf565b6138698161530c565b840191505092915050565b600061387f82615084565b6138898185615128565b93506138998185602086016152cf565b6138a28161530c565b840191505092915050565b6000815460018116600081146138ca57600181146138ef57613933565b607f60028304166138db818761514a565b955060ff1983168652808601935050613933565b600282046138fd818761514a565b95506139088561502e565b60005b8281101561392a5781548189015260018201915060208101905061390b565b82880195505050505b505092915050565b600081546001811660008114613958576001811461397e576139c2565b607f60028304166139698187615139565b955060ff1983168652602086019350506139c2565b6002820461398c8187615139565b955061399785615019565b60005b828110156139b95781548189015260018201915060208101905061399a565b80880195505050505b505092915050565b6139d38161521e565b82525050565b6139e281615242565b82525050565b6139f181615266565b82525050565b613a0081615278565b82525050565b6000613a11826150a5565b613a1b8185615166565b9350613a2b8185602086016152cf565b613a348161530c565b840191505092915050565b6000613a4a8261509a565b613a548185615155565b9350613a648185602086016152cf565b613a6d8161530c565b840191505092915050565b6000613a838261509a565b613a8d8185615166565b9350613a9d8185602086016152cf565b613aa68161530c565b840191505092915050565b600081546001811660008114613ace5760018114613af457613b38565b607f6002830416613adf8187615166565b955060ff198316865260208601935050613b38565b60028204613b028187615166565b9550613b0d85615043565b60005b82811015613b2f57815481890152600182019150602081019050613b10565b80880195505050505b505092915050565b6000613b4d603983615166565b91507f476f7665726e6f72416c7068613a3a5f5f61636365707441646d696e3a20736560008301527f6e646572206d75737420626520676f7620677561726469616e000000000000006020830152604082019050919050565b6000613bb3604483615166565b91507f476f7665726e6f72416c7068613a3a71756575653a2070726f706f73616c206360008301527f616e206f6e6c792062652071756575656420696620697420697320737563636560208301527f65646564000000000000000000000000000000000000000000000000000000006040830152606082019050919050565b6000613c3f604583615166565b91507f476f7665726e6f72416c7068613a3a657865637574653a2070726f706f73616c60008301527f2063616e206f6e6c79206265206578656375746564206966206974206973207160208301527f75657565640000000000000000000000000000000000000000000000000000006040830152606082019050919050565b6000613ccb600283615177565b91507f19010000000000000000000000000000000000000000000000000000000000006000830152600282019050919050565b6000613d0b601b83615166565b91507f536166654d6174683a206164646974696f6e206f766572666c6f7700000000006000830152602082019050919050565b6000613d4b604c83615166565b91507f476f7665726e6f72416c7068613a3a5f5f6578656375746553657454696d656c60008301527f6f636b50656e64696e6741646d696e3a2073656e646572206d7573742062652060208301527f676f7620677561726469616e00000000000000000000000000000000000000006040830152606082019050919050565b6000613dd7601883615166565b91507f73657450656e64696e6741646d696e28616464726573732900000000000000006000830152602082019050919050565b6000613e17602983615166565b91507f476f7665726e6f72416c7068613a3a73746174653a20696e76616c696420707260008301527f6f706f73616c20696400000000000000000000000000000000000000000000006020830152604082019050919050565b6000613e7d602d83615166565b91507f476f7665726e6f72416c7068613a3a5f63617374566f74653a20766f7465722060008301527f616c726561647920766f746564000000000000000000000000000000000000006020830152604082019050919050565b6000613ee3605983615166565b91507f476f7665726e6f72416c7068613a3a70726f706f73653a206f6e65206c69766560008301527f2070726f706f73616c207065722070726f706f7365722c20666f756e6420616e60208301527f20616c72656164792070656e64696e672070726f706f73616c000000000000006040830152606082019050919050565b6000613f6f604a83615166565b91507f476f7665726e6f72416c7068613a3a5f5f717565756553657454696d656c6f6360008301527f6b50656e64696e6741646d696e3a2073656e646572206d75737420626520676f60208301527f7620677561726469616e000000000000000000000000000000000000000000006040830152606082019050919050565b6000613ffb602883615166565b91507f476f7665726e6f72416c7068613a3a70726f706f73653a20746f6f206d616e7960008301527f20616374696f6e730000000000000000000000000000000000000000000000006020830152604082019050919050565b6000614061604383615177565b91507f454950373132446f6d61696e28737472696e67206e616d652c75696e7432353660008301527f20636861696e49642c6164647265737320766572696679696e67436f6e74726160208301527f63742900000000000000000000000000000000000000000000000000000000006040830152604382019050919050565b60006140ed602783615177565b91507f42616c6c6f742875696e743235362070726f706f73616c49642c626f6f6c207360008301527f7570706f727429000000000000000000000000000000000000000000000000006020830152602782019050919050565b6000614153604483615166565b91507f476f7665726e6f72416c7068613a3a70726f706f73653a2070726f706f73616c60008301527f2066756e6374696f6e20696e666f726d6174696f6e206172697479206d69736d60208301527f61746368000000000000000000000000000000000000000000000000000000006040830152606082019050919050565b60006141df602f83615166565b91507f476f7665726e6f72416c7068613a3a63616e63656c3a2070726f706f7365722060008301527f61626f7665207468726573686f6c6400000000000000000000000000000000006020830152604082019050919050565b6000614245604483615166565b91507f476f7665726e6f72416c7068613a3a5f71756575654f725265766572743a207060008301527f726f706f73616c20616374696f6e20616c72656164792071756575656420617460208301527f20657461000000000000000000000000000000000000000000000000000000006040830152606082019050919050565b60006142d1602c83615166565b91507f476f7665726e6f72416c7068613a3a70726f706f73653a206d7573742070726f60008301527f7669646520616374696f6e7300000000000000000000000000000000000000006020830152604082019050919050565b6000614337603f83615166565b91507f476f7665726e6f72416c7068613a3a70726f706f73653a2070726f706f73657260008301527f20766f7465732062656c6f772070726f706f73616c207468726573686f6c64006020830152604082019050919050565b600061439d602f83615166565b91507f476f7665726e6f72416c7068613a3a63617374566f746542795369673a20696e60008301527f76616c6964207369676e617475726500000000000000000000000000000000006020830152604082019050919050565b6000614403605883615166565b91507f476f7665726e6f72416c7068613a3a70726f706f73653a206f6e65206c69766560008301527f2070726f706f73616c207065722070726f706f7365722c20666f756e6420616e60208301527f20616c7265616479206163746976652070726f706f73616c00000000000000006040830152606082019050919050565b600061448f603683615166565b91507f476f7665726e6f72416c7068613a3a63616e63656c3a2063616e6e6f7420636160008301527f6e63656c2065786563757465642070726f706f73616c000000000000000000006020830152604082019050919050565b60006144f5602a83615166565b91507f476f7665726e6f72416c7068613a3a5f63617374566f74653a20766f74696e6760008301527f20697320636c6f736564000000000000000000000000000000000000000000006020830152604082019050919050565b600061455b603683615166565b91507f476f7665726e6f72416c7068613a3a5f5f61626469636174653a2073656e646560008301527f72206d75737420626520676f7620677561726469616e000000000000000000006020830152604082019050919050565b6060820160008201516145ca60008501826137f7565b5060208201516145dd60208501826137f7565b5060408201516145f06040850182614632565b50505050565b6145ff816151dd565b82525050565b61460e816151dd565b82525050565b61461d816151e7565b82525050565b61462c816152ae565b82525050565b61463b816151f4565b82525050565b600061464d82846138ad565b915081905092915050565b600061466382613cbe565b915061466f8285613824565b60208201915061467f8284613824565b6020820191508190509392505050565b600061469a82614054565b9150819050919050565b60006146af826140e0565b9150819050919050565b60006020820190506146ce6000830184613642565b92915050565b60006040820190506146e96000830185613624565b6146f66020830184614605565b9392505050565b600060a0820190506147126000830187613642565b61471f60208301866139f7565b818103604083015261473081613dca565b90508181036060830152614744818561383b565b90506147536080830184614605565b95945050505050565b60006040820190506147716000830185613642565b61477e6020830184614605565b9392505050565b600060808201905061479a6000830187613642565b6147a76020830186614605565b6147b46040830185613806565b6147c16060830184614623565b95945050505050565b600060a0820190506147df6000830188613642565b6147ec6020830187614605565b81810360408301526147fe8186613a06565b90508181036060830152614812818561383b565b90506148216080830184614605565b9695505050505050565b600060a0820190506148406000830188613642565b61484d6020830187614605565b818103604083015261485f8186613ab1565b90508181036060830152614873818561393b565b90506148826080830184614605565b9695505050505050565b600060808201905081810360008301526148a68187613651565b905081810360208301526148ba8186613799565b905081810360408301526148ce8185613724565b905081810360608301526148e281846136af565b905095945050505050565b60006020820190506149026000830184613815565b92915050565b600060808201905061491d6000830187613815565b61492a6020830186613815565b6149376040830185614605565b6149446060830184613642565b95945050505050565b60006060820190506149626000830186613815565b61496f6020830185614605565b61497c6040830184613806565b949350505050565b60006080820190506149996000830187613815565b6149a66020830186614614565b6149b36040830185613815565b6149c06060830184613815565b95945050505050565b60006020820190506149de60008301846139ca565b92915050565b60006020820190506149f960008301846139d9565b92915050565b6000602082019050614a1460008301846139e8565b92915050565b60006020820190508181036000830152614a348184613a78565b905092915050565b60006020820190508181036000830152614a568184613a06565b905092915050565b60006020820190508181036000830152614a7781613b40565b9050919050565b60006020820190508181036000830152614a9781613ba6565b9050919050565b60006020820190508181036000830152614ab781613c32565b9050919050565b60006020820190508181036000830152614ad781613cfe565b9050919050565b60006020820190508181036000830152614af781613d3e565b9050919050565b60006020820190508181036000830152614b1781613e0a565b9050919050565b60006020820190508181036000830152614b3781613e70565b9050919050565b60006020820190508181036000830152614b5781613ed6565b9050919050565b60006020820190508181036000830152614b7781613f62565b9050919050565b60006020820190508181036000830152614b9781613fee565b9050919050565b60006020820190508181036000830152614bb781614146565b9050919050565b60006020820190508181036000830152614bd7816141d2565b9050919050565b60006020820190508181036000830152614bf781614238565b9050919050565b60006020820190508181036000830152614c17816142c4565b9050919050565b60006020820190508181036000830152614c378161432a565b9050919050565b60006020820190508181036000830152614c5781614390565b9050919050565b60006020820190508181036000830152614c77816143f6565b9050919050565b60006020820190508181036000830152614c9781614482565b9050919050565b60006020820190508181036000830152614cb7816144e8565b9050919050565b60006020820190508181036000830152614cd78161454e565b9050919050565b6000606082019050614cf360008301846145b4565b92915050565b6000602082019050614d0e6000830184614605565b92915050565b600060e082019050614d29600083018a614605565b614d366020830189613624565b8181036040830152614d488188613651565b90508181036060830152614d5c8187613799565b90508181036080830152614d708186613724565b905081810360a0830152614d8481856136af565b905081810360c0830152614d988184613a06565b905098975050505050505050565b600061012082019050614dbc600083018c614605565b614dc9602083018b613642565b614dd6604083018a614605565b614de36060830189614605565b614df06080830188614605565b614dfd60a0830187614605565b614e0a60c0830186614605565b614e1760e0830185613806565b614e25610100830184613806565b9a9950505050505050505050565b6000604082019050614e486000830185614605565b614e556020830184614605565b9392505050565b6000604051905081810181811067ffffffffffffffff82111715614e7f57600080fd5b8060405250919050565b600067ffffffffffffffff821115614ea057600080fd5b602082029050602081019050919050565b600067ffffffffffffffff821115614ec857600080fd5b602082029050602081019050919050565b600067ffffffffffffffff821115614ef057600080fd5b602082029050602081019050919050565b600067ffffffffffffffff821115614f1857600080fd5b602082029050602081019050919050565b600067ffffffffffffffff821115614f4057600080fd5b601f19601f8301169050602081019050919050565b600067ffffffffffffffff821115614f6c57600080fd5b601f19601f8301169050602081019050919050565b600067ffffffffffffffff821115614f9857600080fd5b601f19601f8301169050602081019050919050565b600067ffffffffffffffff821115614fc457600080fd5b601f19601f8301169050602081019050919050565b6000819050602082019050919050565b6000819050602082019050919050565b6000819050602082019050919050565b6000819050602082019050919050565b60008190508160005260206000209050919050565b60008190508160005260206000209050919050565b60008190508160005260206000209050919050565b600081519050919050565b600081519050919050565b600081519050919050565b600081519050919050565b600081519050919050565b600081519050919050565b600081519050919050565b600081519050919050565b6000602082019050919050565b6000602082019050919050565b6000602082019050919050565b6000602082019050919050565b600082825260208201905092915050565b600082825260208201905092915050565b600082825260208201905092915050565b600082825260208201905092915050565b600082825260208201905092915050565b600082825260208201905092915050565b600081905092915050565b600082825260208201905092915050565b600082825260208201905092915050565b600081905092915050565b600061518d826151bd565b9050919050565b60008115159050919050565b6000819050919050565b60008190506151b88261531d565b919050565b600073ffffffffffffffffffffffffffffffffffffffff82169050919050565b6000819050919050565b600060ff82169050919050565b60006bffffffffffffffffffffffff82169050919050565b60006152178261528a565b9050919050565b600061522982615230565b9050919050565b600061523b826151bd565b9050919050565b600061524d82615254565b9050919050565b600061525f826151bd565b9050919050565b6000615271826151aa565b9050919050565b6000615283826151dd565b9050919050565b60006152958261529c565b9050919050565b60006152a7826151bd565b9050919050565b60006152b9826151f4565b9050919050565b82818337600083830152505050565b60005b838110156152ed5780820151818401526020810190506152d2565b838111156152fc576000848401525b50505050565b6000819050919050565b6000601f19601f8301169050919050565b6008811061532757fe5b50565b61533381615182565b811461533e57600080fd5b50565b61534a81615194565b811461535557600080fd5b50565b615361816151a0565b811461536c57600080fd5b50565b615378816151dd565b811461538357600080fd5b50565b61538f816151e7565b811461539a57600080fd5b50565b6153a6816151f4565b81146153b157600080fd5b5056fea365627a7a723158200a7a84b142566847436bbffff99c30d23318b6242a19eb2c5c1f427caa1832c96c6578706572696d656e74616cf564736f6c63430005110040a265627a7a723158207a8be4b8544d11bcaeec0decfe0541109fe7844d0c1f0fd5f49f097727140dea64736f6c63430005110032",
  "compiler": {
    "name": "solc",
    "version": "0.5.17+commit.d19bba13.Emscripten.clang",
    "optimizer": {
      "enabled": false,
      "runs": 200
    },
    "evmVersion": "istanbul"
  }
}