{
  "fileName": "Factory.sol",
  "contractName": "GovernanceDeployer",
  "source": "pragma solidity ^0.5.16;\n\nimport \"./GovernorAlpha.sol\";\nimport \"./Timelock.sol\";\nimport \"./VoteToken.sol\";\n\ninterface VoteTokenDeployerInterface {\n    function getPriorVotes(address account, uint256 blockNumber)\n        external\n        view\n        returns (uint96);\n}\n\ncontract GovernanceDeployer {\n    TimelockDeployer public timelockDeployer;\n    VoteTokenDeployer public voteTokenDeployer;\n    GovernorDeployer public governorDeployer;\n\n    bool initialized = false;\n\n    event governanceContractCreated(address contractAddress);\n    event governorDeployerCreated(address timelockDeployer, address voteTokenDeployer, address governorDeployer);\n\n    constructor() public {\n        timelockDeployer = new TimelockDeployer();\n        voteTokenDeployer = new VoteTokenDeployer();\n        governorDeployer = new GovernorDeployer();\n        emit governorDeployerCreated(address(timelockDeployer), address(voteTokenDeployer), address(governorDeployer));\n    }\n\n    function createGovernance(\n        address _guardian,\n        string memory _governorName,\n        uint256 _delay,\n        uint256 _gracePeriod,\n        uint256 _minDelay,\n        uint256 _maxDelay,\n        string memory _voteTokenName,\n        string memory _voteTokenSymbol\n    ) public returns (GovernorAlpha _governanceContract) {\n        Timelock _timelock = timelockDeployer.createTimelock(\n            _guardian,\n            _delay,\n            _gracePeriod,\n            _minDelay,\n            _maxDelay\n        );\n        VoteToken _voteToken = voteTokenDeployer.createStandardVoteToken(\n            _guardian,\n            _voteTokenName,\n            _voteTokenSymbol\n        );\n        GovernorAlpha _newGovernor = governorDeployer.createGovernanceContract(\n            address(_timelock),\n            address(_voteToken),\n            _guardian,\n            _governorName\n        );\n\n        emit governanceContractCreated(address(_newGovernor));\n        return _newGovernor;\n    }\n}\n\ncontract GovernorDeployer {\n    event governanceContractCreated(address governanceContractAddress);\n\n    function createGovernanceContract(\n        address _timelock,\n        address _voteToken,\n        address _guardian,\n        string memory _governorName\n    ) public returns (GovernorAlpha _governorAlpha) {\n        GovernorAlpha _newGovernor = new GovernorAlpha(\n            _timelock,\n            _voteToken,\n            _guardian,\n            _governorName\n        );\n        emit governanceContractCreated(address(_newGovernor));\n        return _newGovernor;\n    }\n}\n\ncontract TimelockDeployer {\n    event timelockCreated(address timelockAddress);\n\n    function createTimelock(\n        address _admin,\n        uint256 _delay,\n        uint256 _gracePeriod,\n        uint256 _minDelay,\n        uint256 _maxDelay\n    ) public returns (Timelock timelock) {\n        Timelock _timelock = new Timelock(\n            _admin,\n            _delay,\n            _gracePeriod,\n            _minDelay,\n            _maxDelay\n        );\n        emit timelockCreated(address(_timelock));\n        return _timelock;\n    }\n}\n\ncontract VoteTokenDeployer {\n    event voteTokenCreated(address voteTokenAddress);\n\n    function createStandardVoteToken(\n        address account,\n        string memory _name,\n        string memory _symbol\n    ) public returns (VoteToken _voteToken) {\n        return _createVoteToken(account, _name, _symbol, 18, 10000000e18);\n    }\n\n    function createCustomVoteToken(\n        address account,\n        string memory _name,\n        string memory _symbol,\n        uint8 _decimals,\n        uint256 _totalSupply\n    ) public returns (VoteToken _voteToken) {\n        return\n            _createVoteToken(account, _name, _symbol, _decimals, _totalSupply);\n    }\n\n    function _createVoteToken(\n        address account,\n        string memory _name,\n        string memory _symbol,\n        uint8 _decimals,\n        uint256 _totalSupply\n    ) internal returns (VoteToken _voteTokenAddress) {\n        VoteToken _voteToken = new VoteToken(\n            account,\n            _name,\n            _symbol,\n            _decimals,\n            _totalSupply\n        );\n        emit voteTokenCreated(address(_voteToken));\n        return _voteToken;\n    }\n}\n",
  "sourcePath": "contracts/Factory.sol",
  "abi": [
    {
      "inputs": [],
      "payable": false,
      "stateMutability": "nonpayable",
      "type": "constructor"
    },
    {
      "anonymous": false,
      "inputs": [
        {
          "indexed": false,
          "internalType": "address",
          "name": "contractAddress",
          "type": "address"
        }
      ],
      "name": "governanceContractCreated",
      "type": "event"
    },
    {
      "anonymous": false,
      "inputs": [
        {
          "indexed": false,
          "internalType": "address",
          "name": "timelockDeployer",
          "type": "address"
        },
        {
          "indexed": false,
          "internalType": "address",
          "name": "voteTokenDeployer",
          "type": "address"
        },
        {
          "indexed": false,
          "internalType": "address",
          "name": "governorDeployer",
          "type": "address"
        }
      ],
      "name": "governorDeployerCreated",
      "type": "event"
    },
    {
      "constant": false,
      "inputs": [
        {
          "internalType": "address",
          "name": "_guardian",
          "type": "address"
        },
        {
          "internalType": "string",
          "name": "_governorName",
          "type": "string"
        },
        {
          "internalType": "uint256",
          "name": "_delay",
          "type": "uint256"
        },
        {
          "internalType": "uint256",
          "name": "_gracePeriod",
          "type": "uint256"
        },
        {
          "internalType": "uint256",
          "name": "_minDelay",
          "type": "uint256"
        },
        {
          "internalType": "uint256",
          "name": "_maxDelay",
          "type": "uint256"
        },
        {
          "internalType": "string",
          "name": "_voteTokenName",
          "type": "string"
        },
        {
          "internalType": "string",
          "name": "_voteTokenSymbol",
          "type": "string"
        }
      ],
      "name": "createGovernance",
      "outputs": [
        {
          "internalType": "contract GovernorAlpha",
          "name": "_governanceContract",
          "type": "address"
        }
      ],
      "payable": false,
      "stateMutability": "nonpayable",
      "type": "function"
    },
    {
      "constant": true,
      "inputs": [],
      "name": "governorDeployer",
      "outputs": [
        {
          "internalType": "contract GovernorDeployer",
          "name": "",
          "type": "address"
        }
      ],
      "payable": false,
      "stateMutability": "view",
      "type": "function"
    },
    {
      "constant": true,
      "inputs": [],
      "name": "timelockDeployer",
      "outputs": [
        {
          "internalType": "contract TimelockDeployer",
          "name": "",
          "type": "address"
        }
      ],
      "payable": false,
      "stateMutability": "view",
      "type": "function"
    },
    {
      "constant": true,
      "inputs": [],
      "name": "voteTokenDeployer",
      "outputs": [
        {
          "internalType": "contract VoteTokenDeployer",
          "name": "",
          "type": "address"
        }
      ],
      "payable": false,
      "stateMutability": "view",
      "type": "function"
    }
  ],
  "bytecode": "0x60806040526000600260146101000a81548160ff02191690831515021790555034801561002b57600080fd5b506040516100389061029b565b604051809103906000f080158015610054573d6000803e3d6000fd5b506000806101000a81548173ffffffffffffffffffffffffffffffffffffffff021916908373ffffffffffffffffffffffffffffffffffffffff1602179055506040516100a0906102a9565b604051809103906000f0801580156100bc573d6000803e3d6000fd5b50600160006101000a81548173ffffffffffffffffffffffffffffffffffffffff021916908373ffffffffffffffffffffffffffffffffffffffff160217905550604051610109906102b7565b604051809103906000f080158015610125573d6000803e3d6000fd5b50600260006101000a81548173ffffffffffffffffffffffffffffffffffffffff021916908373ffffffffffffffffffffffffffffffffffffffff1602179055507f9ced89cd94beedde2f53522e5be14da1e78ce678bf61f9517dbd4f5cac09762d6000809054906101000a900473ffffffffffffffffffffffffffffffffffffffff16600160009054906101000a900473ffffffffffffffffffffffffffffffffffffffff16600260009054906101000a900473ffffffffffffffffffffffffffffffffffffffff16604051808473ffffffffffffffffffffffffffffffffffffffff1673ffffffffffffffffffffffffffffffffffffffff1681526020018373ffffffffffffffffffffffffffffffffffffffff1673ffffffffffffffffffffffffffffffffffffffff1681526020018273ffffffffffffffffffffffffffffffffffffffff1673ffffffffffffffffffffffffffffffffffffffff168152602001935050505060405180910390a16102c5565b61227c8062000c0083390190565b6139f28062002e7c83390190565b615bdd806200686e83390190565b61092b80620002d56000396000f3fe608060405234801561001057600080fd5b506004361061004c5760003560e01c806344393277146100515780635dcce40f146102c3578063876d8eed1461030d578063f143d69414610357575b600080fd5b610281600480360361010081101561006857600080fd5b81019080803573ffffffffffffffffffffffffffffffffffffffff169060200190929190803590602001906401000000008111156100a557600080fd5b8201836020820111156100b757600080fd5b803590602001918460018302840111640100000000831117156100d957600080fd5b91908080601f016020809104026020016040519081016040528093929190818152602001838380828437600081840152601f19601f820116905080830192505050505050509192919290803590602001909291908035906020019092919080359060200190929190803590602001909291908035906020019064010000000081111561016457600080fd5b82018360208201111561017657600080fd5b8035906020019184600183028401116401000000008311171561019857600080fd5b91908080601f016020809104026020016040519081016040528093929190818152602001838380828437600081840152601f19601f820116905080830192505050505050509192919290803590602001906401000000008111156101fb57600080fd5b82018360208201111561020d57600080fd5b8035906020019184600183028401116401000000008311171561022f57600080fd5b91908080601f016020809104026020016040519081016040528093929190818152602001838380828437600081840152601f19601f8201169050808301925050505050505091929192905050506103a1565b604051808273ffffffffffffffffffffffffffffffffffffffff1673ffffffffffffffffffffffffffffffffffffffff16815260200191505060405180910390f35b6102cb610885565b604051808273ffffffffffffffffffffffffffffffffffffffff1673ffffffffffffffffffffffffffffffffffffffff16815260200191505060405180910390f35b6103156108ab565b604051808273ffffffffffffffffffffffffffffffffffffffff1673ffffffffffffffffffffffffffffffffffffffff16815260200191505060405180910390f35b61035f6108d0565b604051808273ffffffffffffffffffffffffffffffffffffffff1673ffffffffffffffffffffffffffffffffffffffff16815260200191505060405180910390f35b6000806000809054906101000a900473ffffffffffffffffffffffffffffffffffffffff1673ffffffffffffffffffffffffffffffffffffffff16630fe591c38b8a8a8a8a6040518663ffffffff1660e01b8152600401808673ffffffffffffffffffffffffffffffffffffffff1673ffffffffffffffffffffffffffffffffffffffff16815260200185815260200184815260200183815260200182815260200195505050505050602060405180830381600087803b15801561046457600080fd5b505af1158015610478573d6000803e3d6000fd5b505050506040513d602081101561048e57600080fd5b810190808051906020019092919050505090506000600160009054906101000a900473ffffffffffffffffffffffffffffffffffffffff1673ffffffffffffffffffffffffffffffffffffffff1663458585b68c87876040518463ffffffff1660e01b8152600401808473ffffffffffffffffffffffffffffffffffffffff1673ffffffffffffffffffffffffffffffffffffffff1681526020018060200180602001838103835285818151815260200191508051906020019080838360005b8381101561056957808201518184015260208101905061054e565b50505050905090810190601f1680156105965780820380516001836020036101000a031916815260200191505b50838103825284818151815260200191508051906020019080838360005b838110156105cf5780820151818401526020810190506105b4565b50505050905090810190601f1680156105fc5780820380516001836020036101000a031916815260200191505b5095505050505050602060405180830381600087803b15801561061e57600080fd5b505af1158015610632573d6000803e3d6000fd5b505050506040513d602081101561064857600080fd5b810190808051906020019092919050505090506000600260009054906101000a900473ffffffffffffffffffffffffffffffffffffffff1673ffffffffffffffffffffffffffffffffffffffff1663b52104c884848f8f6040518563ffffffff1660e01b8152600401808573ffffffffffffffffffffffffffffffffffffffff1673ffffffffffffffffffffffffffffffffffffffff1681526020018473ffffffffffffffffffffffffffffffffffffffff1673ffffffffffffffffffffffffffffffffffffffff1681526020018373ffffffffffffffffffffffffffffffffffffffff1673ffffffffffffffffffffffffffffffffffffffff16815260200180602001828103825283818151815260200191508051906020019080838360005b83811015610784578082015181840152602081019050610769565b50505050905090810190601f1680156107b15780820380516001836020036101000a031916815260200191505b5095505050505050602060405180830381600087803b1580156107d357600080fd5b505af11580156107e7573d6000803e3d6000fd5b505050506040513d60208110156107fd57600080fd5b810190808051906020019092919050505090507f60f41ae683bea74d33893010f8e29f9f2e15f6433b48bc89c39c2603be6e00ea81604051808273ffffffffffffffffffffffffffffffffffffffff1673ffffffffffffffffffffffffffffffffffffffff16815260200191505060405180910390a180935050505098975050505050505050565b600160009054906101000a900473ffffffffffffffffffffffffffffffffffffffff1681565b6000809054906101000a900473ffffffffffffffffffffffffffffffffffffffff1681565b600260009054906101000a900473ffffffffffffffffffffffffffffffffffffffff168156fea265627a7a72315820a919e7753cb843aafce598e390f48471617ea94b96c6ab4023f86bbcdcaa6a3e64736f6c63430005110032608060405234801561001057600080fd5b5061225c806100206000396000f3fe608060405234801561001057600080fd5b506004361061002b5760003560e01c80630fe591c314610030575b600080fd5b61009a600480360360a081101561004657600080fd5b81019080803573ffffffffffffffffffffffffffffffffffffffff169060200190929190803590602001909291908035906020019092919080359060200190929190803590602001909291905050506100dc565b604051808273ffffffffffffffffffffffffffffffffffffffff1673ffffffffffffffffffffffffffffffffffffffff16815260200191505060405180910390f35b60008086868686866040516100f0906101d1565b808673ffffffffffffffffffffffffffffffffffffffff1673ffffffffffffffffffffffffffffffffffffffff16815260200185815260200184815260200183815260200182815260200195505050505050604051809103906000f08015801561015e573d6000803e3d6000fd5b5090507f0279e18a50411e0750e52534a0c27b8cd32b1c0ea7c01add8ec4ac47a15dce0a81604051808273ffffffffffffffffffffffffffffffffffffffff1673ffffffffffffffffffffffffffffffffffffffff16815260200191505060405180910390a18091505095945050505050565b612049806101df8339019056fe608060405234801561001057600080fd5b50604051612049380380612049833981810160405260a081101561003357600080fd5b8101908080519060200190929190805190602001909291908051906020019092919080519060200190929190805190602001909291905050508260008190555081600181905550806002819055506001548410156100dc576040517f08c379a0000000000000000000000000000000000000000000000000000000008152600401808060200182810382526037815260200180611fda6037913960400191505060405180910390fd5b600254841115610137576040517f08c379a00000000000000000000000000000000000000000000000000000000081526004018080602001828103825260388152602001806120116038913960400191505060405180910390fd5b84600360006101000a81548173ffffffffffffffffffffffffffffffffffffffff021916908373ffffffffffffffffffffffffffffffffffffffff160217905550836005819055505050505050611e47806101936000396000f3fe6080604052600436106100c25760003560e01c80636a42b8f81161007f578063c1a287e211610059578063c1a287e21461073d578063e177246e14610768578063f2b06537146107a3578063f851a440146107f6576100c2565b80636a42b8f8146106bc5780637d645fab146106e7578063b1b43ae514610712576100c2565b80630825f38f146100c45780630e18b681146102c357806326782247146102da5780633a66f901146103315780634dd18bf5146104d8578063591fcdfe14610529575b005b610248600480360360a08110156100da57600080fd5b81019080803573ffffffffffffffffffffffffffffffffffffffff169060200190929190803590602001909291908035906020019064010000000081111561012157600080fd5b82018360208201111561013357600080fd5b8035906020019184600183028401116401000000008311171561015557600080fd5b91908080601f016020809104026020016040519081016040528093929190818152602001838380828437600081840152601f19601f820116905080830192505050505050509192919290803590602001906401000000008111156101b857600080fd5b8201836020820111156101ca57600080fd5b803590602001918460018302840111640100000000831117156101ec57600080fd5b91908080601f016020809104026020016040519081016040528093929190818152602001838380828437600081840152601f19601f8201169050808301925050505050505091929192908035906020019092919050505061084d565b6040518080602001828103825283818151815260200191508051906020019080838360005b8381101561028857808201518184015260208101905061026d565b50505050905090810190601f1680156102b55780820380516001836020036101000a031916815260200191505b509250505060405180910390f35b3480156102cf57600080fd5b506102d8610ece565b005b3480156102e657600080fd5b506102ef61105e565b604051808273ffffffffffffffffffffffffffffffffffffffff1673ffffffffffffffffffffffffffffffffffffffff16815260200191505060405180910390f35b34801561033d57600080fd5b506104c2600480360360a081101561035457600080fd5b81019080803573ffffffffffffffffffffffffffffffffffffffff169060200190929190803590602001909291908035906020019064010000000081111561039b57600080fd5b8201836020820111156103ad57600080fd5b803590602001918460018302840111640100000000831117156103cf57600080fd5b91908080601f016020809104026020016040519081016040528093929190818152602001838380828437600081840152601f19601f8201169050808301925050505050505091929192908035906020019064010000000081111561043257600080fd5b82018360208201111561044457600080fd5b8035906020019184600183028401116401000000008311171561046657600080fd5b91908080601f016020809104026020016040519081016040528093929190818152602001838380828437600081840152601f19601f82011690508083019250505050505050919291929080359060200190929190505050611084565b6040518082815260200191505060405180910390f35b3480156104e457600080fd5b50610527600480360360208110156104fb57600080fd5b81019080803573ffffffffffffffffffffffffffffffffffffffff16906020019092919050505061144b565b005b34801561053557600080fd5b506106ba600480360360a081101561054c57600080fd5b81019080803573ffffffffffffffffffffffffffffffffffffffff169060200190929190803590602001909291908035906020019064010000000081111561059357600080fd5b8201836020820111156105a557600080fd5b803590602001918460018302840111640100000000831117156105c757600080fd5b91908080601f016020809104026020016040519081016040528093929190818152602001838380828437600081840152601f19601f8201169050808301925050505050505091929192908035906020019064010000000081111561062a57600080fd5b82018360208201111561063c57600080fd5b8035906020019184600183028401116401000000008311171561065e57600080fd5b91908080601f016020809104026020016040519081016040528093929190818152602001838380828437600081840152601f19601f82011690508083019250505050505050919291929080359060200190929190505050611578565b005b3480156106c857600080fd5b506106d16118c4565b6040518082815260200191505060405180910390f35b3480156106f357600080fd5b506106fc6118ca565b6040518082815260200191505060405180910390f35b34801561071e57600080fd5b506107276118d0565b6040518082815260200191505060405180910390f35b34801561074957600080fd5b506107526118d6565b6040518082815260200191505060405180910390f35b34801561077457600080fd5b506107a16004803603602081101561078b57600080fd5b81019080803590602001909291905050506118dc565b005b3480156107af57600080fd5b506107dc600480360360208110156107c657600080fd5b8101908080359060200190929190505050611a4f565b604051808215151515815260200191505060405180910390f35b34801561080257600080fd5b5061080b611a6f565b604051808273ffffffffffffffffffffffffffffffffffffffff1673ffffffffffffffffffffffffffffffffffffffff16815260200191505060405180910390f35b6060600360009054906101000a900473ffffffffffffffffffffffffffffffffffffffff1673ffffffffffffffffffffffffffffffffffffffff163373ffffffffffffffffffffffffffffffffffffffff16146108f5576040517f08c379a0000000000000000000000000000000000000000000000000000000008152600401808060200182810382526038815260200180611b266038913960400191505060405180910390fd5b60008686868686604051602001808673ffffffffffffffffffffffffffffffffffffffff1673ffffffffffffffffffffffffffffffffffffffff1681526020018581526020018060200180602001848152602001838103835286818151815260200191508051906020019080838360005b83811015610981578082015181840152602081019050610966565b50505050905090810190601f1680156109ae5780820380516001836020036101000a031916815260200191505b50838103825285818151815260200191508051906020019080838360005b838110156109e75780820151818401526020810190506109cc565b50505050905090810190601f168015610a145780820380516001836020036101000a031916815260200191505b509750505050505050506040516020818303038152906040528051906020012090506006600082815260200190815260200160002060009054906101000a900460ff16610aac576040517f08c379a000000000000000000000000000000000000000000000000000000000815260040180806020018281038252603d815260200180611c79603d913960400191505060405180910390fd5b82610ab5611a95565b1015610b0c576040517f08c379a0000000000000000000000000000000000000000000000000000000008152600401808060200182810382526045815260200180611bc86045913960600191505060405180910390fd5b610b2160005484611a9d90919063ffffffff16565b610b29611a95565b1115610b80576040517f08c379a0000000000000000000000000000000000000000000000000000000008152600401808060200182810382526033815260200180611b956033913960400191505060405180910390fd5b60006006600083815260200190815260200160002060006101000a81548160ff0219169083151502179055506060600086511415610bc057849050610c7b565b85805190602001208560405160200180837bffffffffffffffffffffffffffffffffffffffffffffffffffffffff19167bffffffffffffffffffffffffffffffffffffffffffffffffffffffff1916815260040182805190602001908083835b60208310610c435780518252602082019150602081019050602083039250610c20565b6001836020036101000a0380198251168184511680821785525050505050509050019250505060405160208183030381529060405290505b600060608973ffffffffffffffffffffffffffffffffffffffff1689846040518082805190602001908083835b60208310610ccb5780518252602082019150602081019050602083039250610ca8565b6001836020036101000a03801982511681845116808217855250505050505090500191505060006040518083038185875af1925050503d8060008114610d2d576040519150601f19603f3d011682016040523d82523d6000602084013e610d32565b606091505b509150915081610d8d576040517f08c379a000000000000000000000000000000000000000000000000000000000815260040180806020018281038252603d815260200180611d5c603d913960400191505060405180910390fd5b8973ffffffffffffffffffffffffffffffffffffffff16847fa560e3198060a2f10670c1ec5b403077ea6ae93ca8de1c32b451dc1a943cd6e78b8b8b8b604051808581526020018060200180602001848152602001838103835286818151815260200191508051906020019080838360005b83811015610e1a578082015181840152602081019050610dff565b50505050905090810190601f168015610e475780820380516001836020036101000a031916815260200191505b50838103825285818151815260200191508051906020019080838360005b83811015610e80578082015181840152602081019050610e65565b50505050905090810190601f168015610ead5780820380516001836020036101000a031916815260200191505b50965050505050505060405180910390a38094505050505095945050505050565b600460009054906101000a900473ffffffffffffffffffffffffffffffffffffffff1673ffffffffffffffffffffffffffffffffffffffff163373ffffffffffffffffffffffffffffffffffffffff1614610f74576040517f08c379a0000000000000000000000000000000000000000000000000000000008152600401808060200182810382526038815260200180611cb66038913960400191505060405180910390fd5b33600360006101000a81548173ffffffffffffffffffffffffffffffffffffffff021916908373ffffffffffffffffffffffffffffffffffffffff1602179055506000600460006101000a81548173ffffffffffffffffffffffffffffffffffffffff021916908373ffffffffffffffffffffffffffffffffffffffff160217905550600360009054906101000a900473ffffffffffffffffffffffffffffffffffffffff1673ffffffffffffffffffffffffffffffffffffffff167f71614071b88dee5e0b2ae578a9dd7b2ebbe9ae832ba419dc0242cd065a290b6c60405160405180910390a2565b600460009054906101000a900473ffffffffffffffffffffffffffffffffffffffff1681565b6000600360009054906101000a900473ffffffffffffffffffffffffffffffffffffffff1673ffffffffffffffffffffffffffffffffffffffff163373ffffffffffffffffffffffffffffffffffffffff161461112c576040517f08c379a0000000000000000000000000000000000000000000000000000000008152600401808060200182810382526036815260200180611d266036913960400191505060405180910390fd5b61114860055461113a611a95565b611a9d90919063ffffffff16565b8210156111a0576040517f08c379a0000000000000000000000000000000000000000000000000000000008152600401808060200182810382526049815260200180611d996049913960600191505060405180910390fd5b60008686868686604051602001808673ffffffffffffffffffffffffffffffffffffffff1673ffffffffffffffffffffffffffffffffffffffff1681526020018581526020018060200180602001848152602001838103835286818151815260200191508051906020019080838360005b8381101561122c578082015181840152602081019050611211565b50505050905090810190601f1680156112595780820380516001836020036101000a031916815260200191505b50838103825285818151815260200191508051906020019080838360005b83811015611292578082015181840152602081019050611277565b50505050905090810190601f1680156112bf5780820380516001836020036101000a031916815260200191505b5097505050505050505060405160208183030381529060405280519060200120905060016006600083815260200190815260200160002060006101000a81548160ff0219169083151502179055508673ffffffffffffffffffffffffffffffffffffffff16817f76e2796dc3a81d57b0e8504b647febcbeeb5f4af818e164f11eef8131a6a763f88888888604051808581526020018060200180602001848152602001838103835286818151815260200191508051906020019080838360005b8381101561139a57808201518184015260208101905061137f565b50505050905090810190601f1680156113c75780820380516001836020036101000a031916815260200191505b50838103825285818151815260200191508051906020019080838360005b838110156114005780820151818401526020810190506113e5565b50505050905090810190601f16801561142d5780820380516001836020036101000a031916815260200191505b50965050505050505060405180910390a38091505095945050505050565b3073ffffffffffffffffffffffffffffffffffffffff163373ffffffffffffffffffffffffffffffffffffffff16146114cf576040517f08c379a0000000000000000000000000000000000000000000000000000000008152600401808060200182810382526038815260200180611cee6038913960400191505060405180910390fd5b80600460006101000a81548173ffffffffffffffffffffffffffffffffffffffff021916908373ffffffffffffffffffffffffffffffffffffffff160217905550600460009054906101000a900473ffffffffffffffffffffffffffffffffffffffff1673ffffffffffffffffffffffffffffffffffffffff167f69d78e38a01985fbb1462961809b4b2d65531bc93b2b94037f3334b82ca4a75660405160405180910390a250565b600360009054906101000a900473ffffffffffffffffffffffffffffffffffffffff1673ffffffffffffffffffffffffffffffffffffffff163373ffffffffffffffffffffffffffffffffffffffff161461161e576040517f08c379a0000000000000000000000000000000000000000000000000000000008152600401808060200182810382526037815260200180611b5e6037913960400191505060405180910390fd5b60008585858585604051602001808673ffffffffffffffffffffffffffffffffffffffff1673ffffffffffffffffffffffffffffffffffffffff1681526020018581526020018060200180602001848152602001838103835286818151815260200191508051906020019080838360005b838110156116aa57808201518184015260208101905061168f565b50505050905090810190601f1680156116d75780820380516001836020036101000a031916815260200191505b50838103825285818151815260200191508051906020019080838360005b838110156117105780820151818401526020810190506116f5565b50505050905090810190601f16801561173d5780820380516001836020036101000a031916815260200191505b5097505050505050505060405160208183030381529060405280519060200120905060006006600083815260200190815260200160002060006101000a81548160ff0219169083151502179055508573ffffffffffffffffffffffffffffffffffffffff16817f2fffc091a501fd91bfbff27141450d3acb40fb8e6d8382b243ec7a812a3aaf8787878787604051808581526020018060200180602001848152602001838103835286818151815260200191508051906020019080838360005b838110156118185780820151818401526020810190506117fd565b50505050905090810190601f1680156118455780820380516001836020036101000a031916815260200191505b50838103825285818151815260200191508051906020019080838360005b8381101561187e578082015181840152602081019050611863565b50505050905090810190601f1680156118ab5780820380516001836020036101000a031916815260200191505b50965050505050505060405180910390a3505050505050565b60055481565b60025481565b60015481565b60005481565b3073ffffffffffffffffffffffffffffffffffffffff163373ffffffffffffffffffffffffffffffffffffffff1614611960576040517f08c379a0000000000000000000000000000000000000000000000000000000008152600401808060200182810382526031815260200180611de26031913960400191505060405180910390fd5b6001548110156119bb576040517f08c379a0000000000000000000000000000000000000000000000000000000008152600401808060200182810382526034815260200180611c0d6034913960400191505060405180910390fd5b600254811115611a16576040517f08c379a0000000000000000000000000000000000000000000000000000000008152600401808060200182810382526038815260200180611c416038913960400191505060405180910390fd5b806005819055506005547f948b1f6a42ee138b7e34058ba85a37f716d55ff25ff05a763f15bed6a04c8d2c60405160405180910390a250565b60066020528060005260406000206000915054906101000a900460ff1681565b600360009054906101000a900473ffffffffffffffffffffffffffffffffffffffff1681565b600042905090565b600080828401905083811015611b1b576040517f08c379a000000000000000000000000000000000000000000000000000000000815260040180806020018281038252601b8152602001807f536166654d6174683a206164646974696f6e206f766572666c6f77000000000081525060200191505060405180910390fd5b809150509291505056fe54696d656c6f636b3a3a657865637574655472616e73616374696f6e3a2043616c6c206d75737420636f6d652066726f6d2061646d696e2e54696d656c6f636b3a3a63616e63656c5472616e73616374696f6e3a2043616c6c206d75737420636f6d652066726f6d2061646d696e2e54696d656c6f636b3a3a657865637574655472616e73616374696f6e3a205472616e73616374696f6e206973207374616c652e54696d656c6f636b3a3a657865637574655472616e73616374696f6e3a205472616e73616374696f6e206861736e2774207375727061737365642074696d65206c6f636b2e54696d656c6f636b3a3a73657444656c61793a2044656c6179206d75737420657863656564206d696e696d756d2064656c61792e54696d656c6f636b3a3a73657444656c61793a2044656c6179206d757374206e6f7420657863656564206d6178696d756d2064656c61792e54696d656c6f636b3a3a657865637574655472616e73616374696f6e3a205472616e73616374696f6e206861736e2774206265656e207175657565642e54696d656c6f636b3a3a61636365707441646d696e3a2043616c6c206d75737420636f6d652066726f6d2070656e64696e6741646d696e2e54696d656c6f636b3a3a73657450656e64696e6741646d696e3a2043616c6c206d75737420636f6d652066726f6d2054696d656c6f636b2e54696d656c6f636b3a3a71756575655472616e73616374696f6e3a2043616c6c206d75737420636f6d652066726f6d2061646d696e2e54696d656c6f636b3a3a657865637574655472616e73616374696f6e3a205472616e73616374696f6e20657865637574696f6e2072657665727465642e54696d656c6f636b3a3a71756575655472616e73616374696f6e3a20457374696d6174656420657865637574696f6e20626c6f636b206d75737420736174697366792064656c61792e54696d656c6f636b3a3a73657444656c61793a2043616c6c206d75737420636f6d652066726f6d2054696d656c6f636b2ea265627a7a72315820df1b1b023e7950afb1745bface70e15657a538540b313d7816cfd983b4628ab364736f6c6343000511003254696d656c6f636b3a3a636f6e7374727563746f723a2044656c6179206d75737420657863656564206d696e696d756d2064656c61792e54696d656c6f636b3a3a73657444656c61793a2044656c6179206d757374206e6f7420657863656564206d6178696d756d2064656c61792ea265627a7a72315820c7e5509929cfca9b7c0c0526fad7669547f7ecb2aa52c1804e520838a91e058164736f6c63430005110032608060405234801561001057600080fd5b506139d2806100206000396000f3fe608060405234801561001057600080fd5b50600436106100365760003560e01c8063458585b61461003b578063c70fb6c1146101ed575b600080fd5b6101ab6004803603606081101561005157600080fd5b81019080803573ffffffffffffffffffffffffffffffffffffffff1690602001909291908035906020019064010000000081111561008e57600080fd5b8201836020820111156100a057600080fd5b803590602001918460018302840111640100000000831117156100c257600080fd5b91908080601f016020809104026020016040519081016040528093929190818152602001838380828437600081840152601f19601f8201169050808301925050505050505091929192908035906020019064010000000081111561012557600080fd5b82018360208201111561013757600080fd5b8035906020019184600183028401116401000000008311171561015957600080fd5b91908080601f016020809104026020016040519081016040528093929190818152602001838380828437600081840152601f19601f8201169050808301925050505050505091929192905050506103b6565b604051808273ffffffffffffffffffffffffffffffffffffffff1673ffffffffffffffffffffffffffffffffffffffff16815260200191505060405180910390f35b610374600480360360a081101561020357600080fd5b81019080803573ffffffffffffffffffffffffffffffffffffffff1690602001909291908035906020019064010000000081111561024057600080fd5b82018360208201111561025257600080fd5b8035906020019184600183028401116401000000008311171561027457600080fd5b91908080601f016020809104026020016040519081016040528093929190818152602001838380828437600081840152601f19601f820116905080830192505050505050509192919290803590602001906401000000008111156102d757600080fd5b8201836020820111156102e957600080fd5b8035906020019184600183028401116401000000008311171561030b57600080fd5b91908080601f016020809104026020016040519081016040528093929190818152602001838380828437600081840152601f19601f820116905080830192505050505050509192919290803560ff169060200190929190803590602001909291905050506103da565b604051808273ffffffffffffffffffffffffffffffffffffffff1673ffffffffffffffffffffffffffffffffffffffff16815260200191505060405180910390f35b60006103d184848460126a084595161401484a0000006103f4565b90509392505050565b60006103e986868686866103f4565b905095945050505050565b6000808686868686604051610408906105b9565b808673ffffffffffffffffffffffffffffffffffffffff1673ffffffffffffffffffffffffffffffffffffffff16815260200180602001806020018560ff1660ff168152602001848152602001838103835287818151815260200191508051906020019080838360005b8381101561048d578082015181840152602081019050610472565b50505050905090810190601f1680156104ba5780820380516001836020036101000a031916815260200191505b50838103825286818151815260200191508051906020019080838360005b838110156104f35780820151818401526020810190506104d8565b50505050905090810190601f1680156105205780820380516001836020036101000a031916815260200191505b50975050505050505050604051809103906000f080158015610546573d6000803e3d6000fd5b5090507ff3599e2153cbca85fe23df415abbc8f2f4454f8b15dd5d63aeb06c21baf1561281604051808273ffffffffffffffffffffffffffffffffffffffff1673ffffffffffffffffffffffffffffffffffffffff16815260200191505060405180910390a18091505095945050505050565b6133d7806105c78339019056fe60806040523480156200001157600080fd5b50604051620033d7380380620033d78339818101604052620000379190810190620002c0565b83600090805190602001906200004f92919062000170565b5082600190805190602001906200006892919062000170565b5081600260006101000a81548160ff021916908360ff16021790555080600381905550600354600560008773ffffffffffffffffffffffffffffffffffffffff1673ffffffffffffffffffffffffffffffffffffffff16815260200190815260200160002060006101000a8154816bffffffffffffffffffffffff02191690836bffffffffffffffffffffffff1602179055508473ffffffffffffffffffffffffffffffffffffffff16600073ffffffffffffffffffffffffffffffffffffffff167fddf252ad1be2c89b69c2b068fc378daa952ba7f163c4a11628f55a4df523b3ef6003546040516200015d919062000385565b60405180910390a35050505050620004cc565b828054600181600116156101000203166002900490600052602060002090601f016020900481019282601f10620001b357805160ff1916838001178555620001e4565b82800160010185558215620001e4579182015b82811115620001e3578251825591602001919060010190620001c6565b5b509050620001f39190620001f7565b5090565b6200021c91905b8082111562000218576000816000905550600101620001fe565b5090565b90565b60008151905062000230816200047e565b92915050565b600082601f8301126200024857600080fd5b81516200025f6200025982620003d0565b620003a2565b915080825260208301602083018583830111156200027c57600080fd5b6200028983828462000448565b50505092915050565b600081519050620002a38162000498565b92915050565b600081519050620002ba81620004b2565b92915050565b600080600080600060a08688031215620002d957600080fd5b6000620002e9888289016200021f565b955050602086015167ffffffffffffffff8111156200030757600080fd5b620003158882890162000236565b945050604086015167ffffffffffffffff8111156200033357600080fd5b620003418882890162000236565b93505060606200035488828901620002a9565b9250506080620003678882890162000292565b9150509295509295909350565b6200037f8162000431565b82525050565b60006020820190506200039c600083018462000374565b92915050565b6000604051905081810181811067ffffffffffffffff82111715620003c657600080fd5b8060405250919050565b600067ffffffffffffffff821115620003e857600080fd5b601f19601f8301169050602081019050919050565b60006200040a8262000411565b9050919050565b600073ffffffffffffffffffffffffffffffffffffffff82169050919050565b6000819050919050565b600060ff82169050919050565b60005b83811015620004685780820151818401526020810190506200044b565b8381111562000478576000848401525b50505050565b6200048981620003fd565b81146200049557600080fd5b50565b620004a38162000431565b8114620004af57600080fd5b50565b620004bd816200043b565b8114620004c957600080fd5b50565b612efb80620004dc6000396000f3fe608060405234801561001057600080fd5b50600436106101215760003560e01c806370a08231116100ad578063b4b5ea5711610071578063b4b5ea5714610358578063c3cda52014610388578063dd62ed3e146103a4578063e7a324dc146103d4578063f1127ed8146103f257610121565b806370a082311461027a578063782d6fe1146102aa5780637ecebe00146102da57806395d89b411461030a578063a9059cbb1461032857610121565b806323b872dd116100f457806323b872dd146101b0578063313ce567146101e0578063587cde1e146101fe5780635c19a95c1461022e5780636fcfff451461024a57610121565b806306fdde0314610126578063095ea7b31461014457806318160ddd1461017457806320606b7014610192575b600080fd5b61012e610423565b60405161013b91906129be565b60405180910390f35b61015e60048036036101599190810190612200565b6104c1565b60405161016b91906128b9565b60405180910390f35b61017c610654565b6040516101899190612ac2565b60405180910390f35b61019a61065a565b6040516101a791906128d4565b60405180910390f35b6101ca60048036036101c591908101906121b1565b610671565b6040516101d791906128b9565b60405180910390f35b6101e8610905565b6040516101f59190612b21565b60405180910390f35b6102186004803603610213919081019061214c565b610918565b604051610225919061289e565b60405180910390f35b6102486004803603610243919081019061214c565b61094b565b005b610264600480360361025f919081019061214c565b610958565b6040516102719190612add565b60405180910390f35b610294600480360361028f919081019061214c565b61097b565b6040516102a19190612ac2565b60405180910390f35b6102c460048036036102bf9190810190612200565b6109ea565b6040516102d19190612b57565b60405180910390f35b6102f460048036036102ef919081019061214c565b610dfd565b6040516103019190612ac2565b60405180910390f35b610312610e15565b60405161031f91906129be565b60405180910390f35b610342600480360361033d9190810190612200565b610eb3565b60405161034f91906128b9565b60405180910390f35b610372600480360361036d919081019061214c565b610ef0565b60405161037f9190612b57565b60405180910390f35b6103a2600480360361039d919081019061223c565b610fde565b005b6103be60048036036103b99190810190612175565b61125b565b6040516103cb9190612ac2565b60405180910390f35b6103dc611308565b6040516103e991906128d4565b60405180910390f35b61040c600480360361040791908101906122c5565b61131f565b60405161041a929190612af8565b60405180910390f35b60008054600181600116156101000203166002900480601f0160208091040260200160405190810160405280929190818152602001828054600181600116156101000203166002900480156104b95780601f1061048e576101008083540402835291602001916104b9565b820191906000526020600020905b81548152906001019060200180831161049c57829003601f168201915b505050505081565b6000807fffffffffffffffffffffffffffffffffffffffffffffffffffffffffffffffff831415610514577fffffffffffffffffffffffffffffffffffffffffffffffffffffffffffffffff9050610539565b61053683604051806060016040528060258152602001612d7e60259139611378565b90505b80600460003373ffffffffffffffffffffffffffffffffffffffff1673ffffffffffffffffffffffffffffffffffffffff16815260200190815260200160002060008673ffffffffffffffffffffffffffffffffffffffff1673ffffffffffffffffffffffffffffffffffffffff16815260200190815260200160002060006101000a8154816bffffffffffffffffffffffff02191690836bffffffffffffffffffffffff1602179055508373ffffffffffffffffffffffffffffffffffffffff163373ffffffffffffffffffffffffffffffffffffffff167f8c5be1e5ebec7d5bd14f71427d1e84f3dd0314c0f7b2291e5b200ac8c7c3b925836040516106419190612b3c565b60405180910390a3600191505092915050565b60035481565b60405161066690612874565b604051809103902081565b6000803390506000600460008773ffffffffffffffffffffffffffffffffffffffff1673ffffffffffffffffffffffffffffffffffffffff16815260200190815260200160002060008373ffffffffffffffffffffffffffffffffffffffff1673ffffffffffffffffffffffffffffffffffffffff16815260200190815260200160002060009054906101000a90046bffffffffffffffffffffffff169050600061073485604051806060016040528060258152602001612d7e60259139611378565b90508673ffffffffffffffffffffffffffffffffffffffff168373ffffffffffffffffffffffffffffffffffffffff16141580156107ae57507fffffffffffffffffffffffffffffffffffffffffffffffffffffffffffffffff6bffffffffffffffffffffffff16826bffffffffffffffffffffffff1614155b156108ec5760006107d883836040518060600160405280603d8152602001612e55603d91396113d6565b905080600460008a73ffffffffffffffffffffffffffffffffffffffff1673ffffffffffffffffffffffffffffffffffffffff16815260200190815260200160002060008673ffffffffffffffffffffffffffffffffffffffff1673ffffffffffffffffffffffffffffffffffffffff16815260200190815260200160002060006101000a8154816bffffffffffffffffffffffff02191690836bffffffffffffffffffffffff1602179055508373ffffffffffffffffffffffffffffffffffffffff168873ffffffffffffffffffffffffffffffffffffffff167f8c5be1e5ebec7d5bd14f71427d1e84f3dd0314c0f7b2291e5b200ac8c7c3b925836040516108e29190612b3c565b60405180910390a3505b6108f787878361144d565b600193505050509392505050565b600260009054906101000a900460ff1681565b60066020528060005260406000206000915054906101000a900473ffffffffffffffffffffffffffffffffffffffff1681565b610955338261182e565b50565b60086020528060005260406000206000915054906101000a900463ffffffff1681565b6000600560008373ffffffffffffffffffffffffffffffffffffffff1673ffffffffffffffffffffffffffffffffffffffff16815260200190815260200160002060009054906101000a90046bffffffffffffffffffffffff166bffffffffffffffffffffffff169050919050565b6000438210610a2e576040517f08c379a0000000000000000000000000000000000000000000000000000000008152600401610a2590612a42565b60405180910390fd5b6000600860008573ffffffffffffffffffffffffffffffffffffffff1673ffffffffffffffffffffffffffffffffffffffff16815260200190815260200160002060009054906101000a900463ffffffff16905060008163ffffffff161415610a9b576000915050610df7565b82600760008673ffffffffffffffffffffffffffffffffffffffff1673ffffffffffffffffffffffffffffffffffffffff16815260200190815260200160002060006001840363ffffffff1663ffffffff16815260200190815260200160002060000160009054906101000a900463ffffffff1663ffffffff1611610b9d57600760008573ffffffffffffffffffffffffffffffffffffffff1673ffffffffffffffffffffffffffffffffffffffff16815260200190815260200160002060006001830363ffffffff1663ffffffff16815260200190815260200160002060000160049054906101000a90046bffffffffffffffffffffffff16915050610df7565b82600760008673ffffffffffffffffffffffffffffffffffffffff1673ffffffffffffffffffffffffffffffffffffffff16815260200190815260200160002060008063ffffffff16815260200190815260200160002060000160009054906101000a900463ffffffff1663ffffffff161115610c1e576000915050610df7565b600080905060006001830390505b8163ffffffff168163ffffffff161115610d79576000600283830363ffffffff1681610c5457fe5b0482039050610c616120b5565b600760008973ffffffffffffffffffffffffffffffffffffffff1673ffffffffffffffffffffffffffffffffffffffff16815260200190815260200160002060008363ffffffff1663ffffffff1681526020019081526020016000206040518060400160405290816000820160009054906101000a900463ffffffff1663ffffffff1663ffffffff1681526020016000820160049054906101000a90046bffffffffffffffffffffffff166bffffffffffffffffffffffff166bffffffffffffffffffffffff1681525050905086816000015163ffffffff161415610d5157806020015195505050505050610df7565b86816000015163ffffffff161015610d6b57819350610d72565b6001820392505b5050610c2c565b600760008773ffffffffffffffffffffffffffffffffffffffff1673ffffffffffffffffffffffffffffffffffffffff16815260200190815260200160002060008363ffffffff1663ffffffff16815260200190815260200160002060000160049054906101000a90046bffffffffffffffffffffffff1693505050505b92915050565b60096020528060005260406000206000915090505481565b60018054600181600116156101000203166002900480601f016020809104026020016040519081016040528092919081815260200182805460018160011615610100020316600290048015610eab5780601f10610e8057610100808354040283529160200191610eab565b820191906000526020600020905b815481529060010190602001808311610e8e57829003601f168201915b505050505081565b600080610ed883604051806060016040528060268152602001612da360269139611378565b9050610ee533858361144d565b600191505092915050565b600080600860008473ffffffffffffffffffffffffffffffffffffffff1673ffffffffffffffffffffffffffffffffffffffff16815260200190815260200160002060009054906101000a900463ffffffff16905060008163ffffffff1611610f5a576000610fd6565b600760008473ffffffffffffffffffffffffffffffffffffffff1673ffffffffffffffffffffffffffffffffffffffff16815260200190815260200160002060006001830363ffffffff1663ffffffff16815260200190815260200160002060000160049054906101000a90046bffffffffffffffffffffffff165b915050919050565b6000604051610fec90612874565b604051809103902060006040516110039190612826565b60405180910390206110136119ee565b306040516020016110279493929190612934565b604051602081830303815290604052805190602001209050600060405161104d90612889565b604051809103902088888860405160200161106b94939291906128ef565b6040516020818303038152906040528051906020012090506000828260405160200161109892919061283d565b6040516020818303038152906040528051906020012090506000600182888888604051600081526020016040526040516110d59493929190612979565b6020604051602081039080840390855afa1580156110f7573d6000803e3d6000fd5b505050602060405103519050600073ffffffffffffffffffffffffffffffffffffffff168173ffffffffffffffffffffffffffffffffffffffff161415611173576040517f08c379a000000000000000000000000000000000000000000000000000000000815260040161116a90612a02565b60405180910390fd5b600960008273ffffffffffffffffffffffffffffffffffffffff1673ffffffffffffffffffffffffffffffffffffffff1681526020019081526020016000206000815480929190600101919050558914611202576040517f08c379a00000000000000000000000000000000000000000000000000000000081526004016111f990612a62565b60405180910390fd5b87421115611245576040517f08c379a000000000000000000000000000000000000000000000000000000000815260040161123c90612a22565b60405180910390fd5b61124f818b61182e565b50505050505050505050565b6000600460008473ffffffffffffffffffffffffffffffffffffffff1673ffffffffffffffffffffffffffffffffffffffff16815260200190815260200160002060008373ffffffffffffffffffffffffffffffffffffffff1673ffffffffffffffffffffffffffffffffffffffff16815260200190815260200160002060009054906101000a90046bffffffffffffffffffffffff166bffffffffffffffffffffffff16905092915050565b60405161131490612889565b604051809103902081565b6007602052816000526040600020602052806000526040600020600091509150508060000160009054906101000a900463ffffffff16908060000160049054906101000a90046bffffffffffffffffffffffff16905082565b60006c01000000000000000000000000831082906113cc576040517f08c379a00000000000000000000000000000000000000000000000000000000081526004016113c391906129e0565b60405180910390fd5b5082905092915050565b6000836bffffffffffffffffffffffff16836bffffffffffffffffffffffff161115829061143a576040517f08c379a000000000000000000000000000000000000000000000000000000000815260040161143191906129e0565b60405180910390fd5b5060008385039050809150509392505050565b600073ffffffffffffffffffffffffffffffffffffffff168373ffffffffffffffffffffffffffffffffffffffff1614156114bd576040517f08c379a00000000000000000000000000000000000000000000000000000000081526004016114b490612aa2565b60405180910390fd5b600073ffffffffffffffffffffffffffffffffffffffff168273ffffffffffffffffffffffffffffffffffffffff16141561152d576040517f08c379a000000000000000000000000000000000000000000000000000000000815260040161152490612a82565b60405180910390fd5b6115a7600560008573ffffffffffffffffffffffffffffffffffffffff1673ffffffffffffffffffffffffffffffffffffffff16815260200190815260200160002060009054906101000a90046bffffffffffffffffffffffff1682604051806060016040528060368152602001612d48603691396113d6565b600560008573ffffffffffffffffffffffffffffffffffffffff1673ffffffffffffffffffffffffffffffffffffffff16815260200190815260200160002060006101000a8154816bffffffffffffffffffffffff02191690836bffffffffffffffffffffffff16021790555061168e600560008473ffffffffffffffffffffffffffffffffffffffff1673ffffffffffffffffffffffffffffffffffffffff16815260200190815260200160002060009054906101000a90046bffffffffffffffffffffffff1682604051806060016040528060308152602001612e25603091396119fb565b600560008473ffffffffffffffffffffffffffffffffffffffff1673ffffffffffffffffffffffffffffffffffffffff16815260200190815260200160002060006101000a8154816bffffffffffffffffffffffff02191690836bffffffffffffffffffffffff1602179055508173ffffffffffffffffffffffffffffffffffffffff168373ffffffffffffffffffffffffffffffffffffffff167fddf252ad1be2c89b69c2b068fc378daa952ba7f163c4a11628f55a4df523b3ef836040516117589190612b3c565b60405180910390a3611829600660008573ffffffffffffffffffffffffffffffffffffffff1673ffffffffffffffffffffffffffffffffffffffff16815260200190815260200160002060009054906101000a900473ffffffffffffffffffffffffffffffffffffffff16600660008573ffffffffffffffffffffffffffffffffffffffff1673ffffffffffffffffffffffffffffffffffffffff16815260200190815260200160002060009054906101000a900473ffffffffffffffffffffffffffffffffffffffff1683611a71565b505050565b6000600660008473ffffffffffffffffffffffffffffffffffffffff1673ffffffffffffffffffffffffffffffffffffffff16815260200190815260200160002060009054906101000a900473ffffffffffffffffffffffffffffffffffffffff1690506000600560008573ffffffffffffffffffffffffffffffffffffffff1673ffffffffffffffffffffffffffffffffffffffff16815260200190815260200160002060009054906101000a90046bffffffffffffffffffffffff16905082600660008673ffffffffffffffffffffffffffffffffffffffff1673ffffffffffffffffffffffffffffffffffffffff16815260200190815260200160002060006101000a81548173ffffffffffffffffffffffffffffffffffffffff021916908373ffffffffffffffffffffffffffffffffffffffff1602179055508273ffffffffffffffffffffffffffffffffffffffff168273ffffffffffffffffffffffffffffffffffffffff168573ffffffffffffffffffffffffffffffffffffffff167f3134e8a2e6d97e929a7e54011ea5485d7d196dd5f0ba4d4ef95803e8e3fc257f60405160405180910390a46119e8828483611a71565b50505050565b6000804690508091505090565b6000808385019050846bffffffffffffffffffffffff16816bffffffffffffffffffffffff1610158390611a65576040517f08c379a0000000000000000000000000000000000000000000000000000000008152600401611a5c91906129e0565b60405180910390fd5b50809150509392505050565b8173ffffffffffffffffffffffffffffffffffffffff168373ffffffffffffffffffffffffffffffffffffffff1614158015611abb57506000816bffffffffffffffffffffffff16115b15611d6757600073ffffffffffffffffffffffffffffffffffffffff168373ffffffffffffffffffffffffffffffffffffffff1614611c13576000600860008573ffffffffffffffffffffffffffffffffffffffff1673ffffffffffffffffffffffffffffffffffffffff16815260200190815260200160002060009054906101000a900463ffffffff1690506000808263ffffffff1611611b5e576000611bda565b600760008673ffffffffffffffffffffffffffffffffffffffff1673ffffffffffffffffffffffffffffffffffffffff16815260200190815260200160002060006001840363ffffffff1663ffffffff16815260200190815260200160002060000160049054906101000a90046bffffffffffffffffffffffff165b90506000611c018285604051806060016040528060288152602001612dfd602891396113d6565b9050611c0f86848484611d6c565b5050505b600073ffffffffffffffffffffffffffffffffffffffff168273ffffffffffffffffffffffffffffffffffffffff1614611d66576000600860008473ffffffffffffffffffffffffffffffffffffffff1673ffffffffffffffffffffffffffffffffffffffff16815260200190815260200160002060009054906101000a900463ffffffff1690506000808263ffffffff1611611cb1576000611d2d565b600760008573ffffffffffffffffffffffffffffffffffffffff1673ffffffffffffffffffffffffffffffffffffffff16815260200190815260200160002060006001840363ffffffff1663ffffffff16815260200190815260200160002060000160049054906101000a90046bffffffffffffffffffffffff165b90506000611d548285604051806060016040528060278152602001612e92602791396119fb565b9050611d6285848484611d6c565b5050505b5b505050565b6000611d9043604051806060016040528060348152602001612dc96034913961205f565b905060008463ffffffff16118015611e2557508063ffffffff16600760008773ffffffffffffffffffffffffffffffffffffffff1673ffffffffffffffffffffffffffffffffffffffff16815260200190815260200160002060006001870363ffffffff1663ffffffff16815260200190815260200160002060000160009054906101000a900463ffffffff1663ffffffff16145b15611ec05781600760008773ffffffffffffffffffffffffffffffffffffffff1673ffffffffffffffffffffffffffffffffffffffff16815260200190815260200160002060006001870363ffffffff1663ffffffff16815260200190815260200160002060000160046101000a8154816bffffffffffffffffffffffff02191690836bffffffffffffffffffffffff160217905550612008565b60405180604001604052808263ffffffff168152602001836bffffffffffffffffffffffff16815250600760008773ffffffffffffffffffffffffffffffffffffffff1673ffffffffffffffffffffffffffffffffffffffff16815260200190815260200160002060008663ffffffff1663ffffffff16815260200190815260200160002060008201518160000160006101000a81548163ffffffff021916908363ffffffff16021790555060208201518160000160046101000a8154816bffffffffffffffffffffffff02191690836bffffffffffffffffffffffff16021790555090505060018401600860008773ffffffffffffffffffffffffffffffffffffffff1673ffffffffffffffffffffffffffffffffffffffff16815260200190815260200160002060006101000a81548163ffffffff021916908363ffffffff1602179055505b8473ffffffffffffffffffffffffffffffffffffffff167fdec2bacdd2f05b59de34da9b523dff8be42e5e38e818c82fdb0bae774387a7248484604051612050929190612b72565b60405180910390a25050505050565b6000640100000000831082906120ab576040517f08c379a00000000000000000000000000000000000000000000000000000000081526004016120a291906129e0565b60405180910390fd5b5082905092915050565b6040518060400160405280600063ffffffff16815260200160006bffffffffffffffffffffffff1681525090565b6000813590506120f281612cd4565b92915050565b60008135905061210781612ceb565b92915050565b60008135905061211c81612d02565b92915050565b60008135905061213181612d19565b92915050565b60008135905061214681612d30565b92915050565b60006020828403121561215e57600080fd5b600061216c848285016120e3565b91505092915050565b6000806040838503121561218857600080fd5b6000612196858286016120e3565b92505060206121a7858286016120e3565b9150509250929050565b6000806000606084860312156121c657600080fd5b60006121d4868287016120e3565b93505060206121e5868287016120e3565b92505060406121f68682870161210d565b9150509250925092565b6000806040838503121561221357600080fd5b6000612221858286016120e3565b92505060206122328582860161210d565b9150509250929050565b60008060008060008060c0878903121561225557600080fd5b600061226389828a016120e3565b965050602061227489828a0161210d565b955050604061228589828a0161210d565b945050606061229689828a01612137565b93505060806122a789828a016120f8565b92505060a06122b889828a016120f8565b9150509295509295509295565b600080604083850312156122d857600080fd5b60006122e6858286016120e3565b92505060206122f785828601612122565b9150509250929050565b61230a81612bed565b82525050565b61231981612bff565b82525050565b61232881612c0b565b82525050565b61233f61233a82612c0b565b612cb9565b82525050565b6000815460018116600081146123625760018114612387576123cb565b607f60028304166123738187612bc6565b955060ff19831686528086019350506123cb565b600282046123958187612bc6565b95506123a085612b9b565b60005b828110156123c2578154818901526001820191506020810190506123a3565b82880195505050505b505092915050565b60006123de82612bbb565b6123e88185612bd1565b93506123f8818560208601612c86565b61240181612cc3565b840191505092915050565b600061241782612bb0565b6124218185612bd1565b9350612431818560208601612c86565b61243a81612cc3565b840191505092915050565b6000612452602683612bd1565b91507f436f6d703a3a64656c656761746542795369673a20696e76616c69642073696760008301527f6e617475726500000000000000000000000000000000000000000000000000006020830152604082019050919050565b60006124b8602683612bd1565b91507f436f6d703a3a64656c656761746542795369673a207369676e6174757265206560008301527f78706972656400000000000000000000000000000000000000000000000000006020830152604082019050919050565b600061251e600283612be2565b91507f19010000000000000000000000000000000000000000000000000000000000006000830152600282019050919050565b600061255e602783612bd1565b91507f436f6d703a3a6765745072696f72566f7465733a206e6f74207965742064657460008301527f65726d696e6564000000000000000000000000000000000000000000000000006020830152604082019050919050565b60006125c4602283612bd1565b91507f436f6d703a3a64656c656761746542795369673a20696e76616c6964206e6f6e60008301527f63650000000000000000000000000000000000000000000000000000000000006020830152604082019050919050565b600061262a603a83612bd1565b91507f436f6d703a3a5f7472616e73666572546f6b656e733a2063616e6e6f7420747260008301527f616e7366657220746f20746865207a65726f20616464726573730000000000006020830152604082019050919050565b6000612690604383612be2565b91507f454950373132446f6d61696e28737472696e67206e616d652c75696e7432353660008301527f20636861696e49642c6164647265737320766572696679696e67436f6e74726160208301527f63742900000000000000000000000000000000000000000000000000000000006040830152604382019050919050565b600061271c603c83612bd1565b91507f436f6d703a3a5f7472616e73666572546f6b656e733a2063616e6e6f7420747260008301527f616e736665722066726f6d20746865207a65726f2061646472657373000000006020830152604082019050919050565b6000612782603a83612be2565b91507f44656c65676174696f6e28616464726573732064656c6567617465652c75696e60008301527f74323536206e6f6e63652c75696e7432353620657870697279290000000000006020830152603a82019050919050565b6127e481612c35565b82525050565b6127f381612c3f565b82525050565b61280281612c4f565b82525050565b61281181612c74565b82525050565b61282081612c5c565b82525050565b60006128328284612345565b915081905092915050565b600061284882612511565b9150612854828561232e565b602082019150612864828461232e565b6020820191508190509392505050565b600061287f82612683565b9150819050919050565b600061289482612775565b9150819050919050565b60006020820190506128b36000830184612301565b92915050565b60006020820190506128ce6000830184612310565b92915050565b60006020820190506128e9600083018461231f565b92915050565b6000608082019050612904600083018761231f565b6129116020830186612301565b61291e60408301856127db565b61292b60608301846127db565b95945050505050565b6000608082019050612949600083018761231f565b612956602083018661231f565b61296360408301856127db565b6129706060830184612301565b95945050505050565b600060808201905061298e600083018761231f565b61299b60208301866127f9565b6129a8604083018561231f565b6129b5606083018461231f565b95945050505050565b600060208201905081810360008301526129d8818461240c565b905092915050565b600060208201905081810360008301526129fa81846123d3565b905092915050565b60006020820190508181036000830152612a1b81612445565b9050919050565b60006020820190508181036000830152612a3b816124ab565b9050919050565b60006020820190508181036000830152612a5b81612551565b9050919050565b60006020820190508181036000830152612a7b816125b7565b9050919050565b60006020820190508181036000830152612a9b8161261d565b9050919050565b60006020820190508181036000830152612abb8161270f565b9050919050565b6000602082019050612ad760008301846127db565b92915050565b6000602082019050612af260008301846127ea565b92915050565b6000604082019050612b0d60008301856127ea565b612b1a6020830184612817565b9392505050565b6000602082019050612b3660008301846127f9565b92915050565b6000602082019050612b516000830184612808565b92915050565b6000602082019050612b6c6000830184612817565b92915050565b6000604082019050612b876000830185612808565b612b946020830184612808565b9392505050565b60008190508160005260206000209050919050565b600081519050919050565b600081519050919050565b600081905092915050565b600082825260208201905092915050565b600081905092915050565b6000612bf882612c15565b9050919050565b60008115159050919050565b6000819050919050565b600073ffffffffffffffffffffffffffffffffffffffff82169050919050565b6000819050919050565b600063ffffffff82169050919050565b600060ff82169050919050565b60006bffffffffffffffffffffffff82169050919050565b6000612c7f82612c5c565b9050919050565b60005b83811015612ca4578082015181840152602081019050612c89565b83811115612cb3576000848401525b50505050565b6000819050919050565b6000601f19601f8301169050919050565b612cdd81612bed565b8114612ce857600080fd5b50565b612cf481612c0b565b8114612cff57600080fd5b50565b612d0b81612c35565b8114612d1657600080fd5b50565b612d2281612c3f565b8114612d2d57600080fd5b50565b612d3981612c4f565b8114612d4457600080fd5b5056fe436f6d703a3a5f7472616e73666572546f6b656e733a207472616e7366657220616d6f756e7420657863656564732062616c616e6365436f6d703a3a617070726f76653a20616d6f756e7420657863656564732039362062697473436f6d703a3a7472616e736665723a20616d6f756e7420657863656564732039362062697473436f6d703a3a5f7772697465436865636b706f696e743a20626c6f636b206e756d62657220657863656564732033322062697473436f6d703a3a5f6d6f7665566f7465733a20766f746520616d6f756e7420756e646572666c6f7773436f6d703a3a5f7472616e73666572546f6b656e733a207472616e7366657220616d6f756e74206f766572666c6f7773436f6d703a3a7472616e7366657246726f6d3a207472616e7366657220616d6f756e742065786365656473207370656e64657220616c6c6f77616e6365436f6d703a3a5f6d6f7665566f7465733a20766f746520616d6f756e74206f766572666c6f7773a365627a7a7231582002097e509e76011e1511cea727951c0f940b2ce8add53732fc60535d98949b326c6578706572696d656e74616cf564736f6c63430005110040a265627a7a72315820591f440f42e0a19bebf478b1fa01e873ddfdabf8b71ce03e737d83c3fdbcb10a64736f6c63430005110032608060405234801561001057600080fd5b50615bbd806100206000396000f3fe608060405234801561001057600080fd5b506004361061002b5760003560e01c8063b52104c814610030575b600080fd5b6101496004803603608081101561004657600080fd5b81019080803573ffffffffffffffffffffffffffffffffffffffff169060200190929190803573ffffffffffffffffffffffffffffffffffffffff169060200190929190803573ffffffffffffffffffffffffffffffffffffffff169060200190929190803590602001906401000000008111156100c357600080fd5b8201836020820111156100d557600080fd5b803590602001918460018302840111640100000000831117156100f757600080fd5b91908080601f016020809104026020016040519081016040528093929190818152602001838380828437600081840152601f19601f82011690508083019250505050505050919291929050505061018b565b604051808273ffffffffffffffffffffffffffffffffffffffff1673ffffffffffffffffffffffffffffffffffffffff16815260200191505060405180910390f35b6000808585858560405161019e90610334565b808573ffffffffffffffffffffffffffffffffffffffff1673ffffffffffffffffffffffffffffffffffffffff1681526020018473ffffffffffffffffffffffffffffffffffffffff1673ffffffffffffffffffffffffffffffffffffffff1681526020018373ffffffffffffffffffffffffffffffffffffffff1673ffffffffffffffffffffffffffffffffffffffff16815260200180602001828103825283818151815260200191508051906020019080838360005b83811015610271578082015181840152602081019050610256565b50505050905090810190601f16801561029e5780820380516001836020036101000a031916815260200191505b5095505050505050604051809103906000f0801580156102c2573d6000803e3d6000fd5b5090507f60f41ae683bea74d33893010f8e29f9f2e15f6433b48bc89c39c2603be6e00ea81604051808273ffffffffffffffffffffffffffffffffffffffff1673ffffffffffffffffffffffffffffffffffffffff16815260200191505060405180910390a180915050949350505050565b615847806103428339019056fe60806040523480156200001157600080fd5b50604051620058473803806200584783398181016040526200003791908101906200027e565b80600090805190602001906200004f9291906200015c565b5083600160006101000a81548173ffffffffffffffffffffffffffffffffffffffff021916908373ffffffffffffffffffffffffffffffffffffffff16021790555082600260006101000a81548173ffffffffffffffffffffffffffffffffffffffff021916908373ffffffffffffffffffffffffffffffffffffffff16021790555081600360006101000a81548173ffffffffffffffffffffffffffffffffffffffff021916908373ffffffffffffffffffffffffffffffffffffffff1602179055507f46fca5570ba12fac7505f45a1279762c1245b2413c28c78b1e72f4c564a065a5308585856040516200014a949392919062000314565b60405180910390a15050505062000440565b828054600181600116156101000203166002900490600052602060002090601f016020900481019282601f106200019f57805160ff1916838001178555620001d0565b82800160010185558215620001d0579182015b82811115620001cf578251825591602001919060010190620001b2565b5b509050620001df9190620001e3565b5090565b6200020891905b8082111562000204576000816000905550600101620001ea565b5090565b90565b6000815190506200021c8162000426565b92915050565b600082601f8301126200023457600080fd5b81516200024b62000245826200038f565b62000361565b915080825260208301602083018583830111156200026857600080fd5b62000275838284620003f0565b50505092915050565b600080600080608085870312156200029557600080fd5b6000620002a5878288016200020b565b9450506020620002b8878288016200020b565b9350506040620002cb878288016200020b565b925050606085015167ffffffffffffffff811115620002e957600080fd5b620002f78782880162000222565b91505092959194509250565b6200030e81620003bc565b82525050565b60006080820190506200032b600083018762000303565b6200033a602083018662000303565b62000349604083018562000303565b62000358606083018462000303565b95945050505050565b6000604051905081810181811067ffffffffffffffff821117156200038557600080fd5b8060405250919050565b600067ffffffffffffffff821115620003a757600080fd5b601f19601f8301169050602081019050919050565b6000620003c982620003d0565b9050919050565b600073ffffffffffffffffffffffffffffffffffffffff82169050919050565b60005b8381101562000410578082015181840152602081019050620003f3565b8381111562000420576000848401525b50505050565b6200043181620003bc565b81146200043d57600080fd5b50565b6153f780620004506000396000f3fe60806040526004361061019c5760003560e01c8063452a9320116100ec578063d33219b41161008a578063ddf0b00911610064578063ddf0b009146105b1578063deaaa7cc146105da578063e23a9a5214610605578063fe0d94c1146106425761019c565b8063d33219b41461051e578063da35c66414610549578063da95691a146105745761019c565b80637bdbe4d0116100c65780637bdbe4d01461048857806391500671146104b3578063b58131b0146104dc578063b9a61961146105075761019c565b8063452a93201461041d5780634634c61f14610448578063760fbc13146104715761019c565b806320606b7011610159578063328dd98211610133578063328dd9821461034c5780633932abb11461038c5780633e4f49e6146103b757806340e58ee5146103f45761019c565b806320606b70146102cd57806321f43e42146102f857806324bc1a64146103215761019c565b8063013cf08b146101a157806302a251a3146101e657806306fdde031461021157806315373e3d1461023c578063160d66ae1461026557806317977c6114610290575b600080fd5b3480156101ad57600080fd5b506101c860048036036101c39190810190613462565b61065e565b6040516101dd99989796959493929190614da6565b60405180910390f35b3480156101f257600080fd5b506101fb6106e6565b6040516102089190614cf9565b60405180910390f35b34801561021d57600080fd5b506102266106f0565b6040516102339190614a1a565b60405180910390f35b34801561024857600080fd5b50610263600480360361025e91908101906134f0565b61078e565b005b34801561027157600080fd5b5061027a61079d565b60405161028791906149e4565b60405180910390f35b34801561029c57600080fd5b506102b760048036036102b2919081019061327b565b6107c3565b6040516102c49190614cf9565b60405180910390f35b3480156102d957600080fd5b506102e26107db565b6040516102ef91906148ed565b60405180910390f35b34801561030457600080fd5b5061031f600480360361031a91908101906132a4565b6107f2565b005b34801561032d57600080fd5b50610336610981565b6040516103439190614cf9565b60405180910390f35b34801561035857600080fd5b50610373600480360361036e9190810190613462565b610993565b604051610383949392919061488c565b60405180910390f35b34801561039857600080fd5b506103a1610c70565b6040516103ae9190614cf9565b60405180910390f35b3480156103c357600080fd5b506103de60048036036103d99190810190613462565b610c79565b6040516103eb91906149ff565b60405180910390f35b34801561040057600080fd5b5061041b60048036036104169190810190613462565b610e67565b005b34801561042957600080fd5b5061043261120d565b60405161043f91906146b9565b60405180910390f35b34801561045457600080fd5b5061046f600480360361046a919081019061352c565b611233565b005b34801561047d57600080fd5b506104866113dc565b005b34801561049457600080fd5b5061049d6114b0565b6040516104aa9190614cf9565b60405180910390f35b3480156104bf57600080fd5b506104da60048036036104d591908101906132a4565b6114b9565b005b3480156104e857600080fd5b506104f1611643565b6040516104fe9190614cf9565b60405180910390f35b34801561051357600080fd5b5061051c611655565b005b34801561052a57600080fd5b50610533611769565b60405161054091906149c9565b60405180910390f35b34801561055557600080fd5b5061055e61178f565b60405161056b9190614cf9565b60405180910390f35b34801561058057600080fd5b5061059b600480360361059691908101906132e0565b611795565b6040516105a89190614cf9565b60405180910390f35b3480156105bd57600080fd5b506105d860048036036105d39190810190613462565b611d86565b005b3480156105e657600080fd5b506105ef6120df565b6040516105fc91906148ed565b60405180910390f35b34801561061157600080fd5b5061062c600480360361062791908101906134b4565b6120f6565b6040516106399190614cde565b60405180910390f35b61065c60048036036106579190810190613462565b6121d8565b005b60056020528060005260406000206000915090508060000154908060010160009054906101000a900473ffffffffffffffffffffffffffffffffffffffff169080600201549080600701549080600801549080600901549080600a01549080600b0160009054906101000a900460ff169080600b0160019054906101000a900460ff16905089565b6000614380905090565b60008054600181600116156101000203166002900480601f0160208091040260200160405190810160405280929190818152602001828054600181600116156101000203166002900480156107865780601f1061075b57610100808354040283529160200191610786565b820191906000526020600020905b81548152906001019060200180831161076957829003601f168201915b505050505081565b610799338383612426565b5050565b600260009054906101000a900473ffffffffffffffffffffffffffffffffffffffff1681565b60066020528060005260406000206000915090505481565b6040516107e79061468f565b604051809103902081565b600360009054906101000a900473ffffffffffffffffffffffffffffffffffffffff1673ffffffffffffffffffffffffffffffffffffffff163373ffffffffffffffffffffffffffffffffffffffff1614610882576040517f08c379a000000000000000000000000000000000000000000000000000000000815260040161087990614ade565b60405180910390fd5b600160009054906101000a900473ffffffffffffffffffffffffffffffffffffffff1673ffffffffffffffffffffffffffffffffffffffff16630825f38f600160009054906101000a900473ffffffffffffffffffffffffffffffffffffffff166000856040516020016108f691906146b9565b604051602081830303815290604052856040518563ffffffff1660e01b815260040161092594939291906146fd565b600060405180830381600087803b15801561093f57600080fd5b505af1158015610953573d6000803e3d6000fd5b505050506040513d6000823e3d601f19601f8201168201806040525061097c9190810190613421565b505050565b60006954b40b1f852bda000000905090565b60608060608060006005600087815260200190815260200160002090508060030181600401826005018360060183805480602002602001604051908101604052809291908181526020018280548015610a4157602002820191906000526020600020905b8160009054906101000a900473ffffffffffffffffffffffffffffffffffffffff1673ffffffffffffffffffffffffffffffffffffffff16815260200190600101908083116109f7575b5050505050935082805480602002602001604051908101604052809291908181526020018280548015610a9357602002820191906000526020600020905b815481526020019060010190808311610a7f575b5050505050925081805480602002602001604051908101604052809291908181526020016000905b82821015610b77578382906000526020600020018054600181600116156101000203166002900480601f016020809104026020016040519081016040528092919081815260200182805460018160011615610100020316600290048015610b635780601f10610b3857610100808354040283529160200191610b63565b820191906000526020600020905b815481529060010190602001808311610b4657829003601f168201915b505050505081526020019060010190610abb565b50505050915080805480602002602001604051908101604052809291908181526020016000905b82821015610c5a578382906000526020600020018054600181600116156101000203166002900480601f016020809104026020016040519081016040528092919081815260200182805460018160011615610100020316600290048015610c465780601f10610c1b57610100808354040283529160200191610c46565b820191906000526020600020905b815481529060010190602001808311610c2957829003601f168201915b505050505081526020019060010190610b9e565b5050505090509450945094509450509193509193565b60006001905090565b60008160045410158015610c8d5750600082115b610ccc576040517f08c379a0000000000000000000000000000000000000000000000000000000008152600401610cc390614afe565b60405180910390fd5b600060056000848152602001908152602001600020905080600b0160009054906101000a900460ff1615610d04576002915050610e62565b80600701544311610d19576000915050610e62565b80600801544311610d2e576001915050610e62565b80600a01548160090154111580610d4f5750610d48610981565b8160090154105b15610d5e576003915050610e62565b600081600201541415610d75576004915050610e62565b80600b0160019054906101000a900460ff1615610d96576007915050610e62565b610e4c600160009054906101000a900473ffffffffffffffffffffffffffffffffffffffff1673ffffffffffffffffffffffffffffffffffffffff1663c1a287e26040518163ffffffff1660e01b815260040160206040518083038186803b158015610e0157600080fd5b505afa158015610e15573d6000803e3d6000fd5b505050506040513d601f19601f82011682018060405250610e39919081019061348b565b826002015461270790919063ffffffff16565b4210610e5c576006915050610e62565b60059150505b919050565b6000610e7282610c79565b9050600780811115610e8057fe5b816007811115610e8c57fe5b1415610ecd576040517f08c379a0000000000000000000000000000000000000000000000000000000008152600401610ec490614c7e565b60405180910390fd5b6000600560008481526020019081526020016000209050600360009054906101000a900473ffffffffffffffffffffffffffffffffffffffff1673ffffffffffffffffffffffffffffffffffffffff163373ffffffffffffffffffffffffffffffffffffffff1614806110375750610f43611643565b600260009054906101000a900473ffffffffffffffffffffffffffffffffffffffff1673ffffffffffffffffffffffffffffffffffffffff1663782d6fe18360010160009054906101000a900473ffffffffffffffffffffffffffffffffffffffff16610fba60014361275c90919063ffffffff16565b6040518363ffffffff1660e01b8152600401610fd792919061475c565b60206040518083038186803b158015610fef57600080fd5b505afa158015611003573d6000803e3d6000fd5b505050506040513d601f19601f8201168201806040525061102791908101906135a3565b6bffffffffffffffffffffffff16105b611076576040517f08c379a000000000000000000000000000000000000000000000000000000000815260040161106d90614bbe565b60405180910390fd5b600181600b0160006101000a81548160ff02191690831515021790555060008090505b81600301805490508110156111d057600160009054906101000a900473ffffffffffffffffffffffffffffffffffffffff1673ffffffffffffffffffffffffffffffffffffffff1663591fcdfe8360030183815481106110f557fe5b9060005260206000200160009054906101000a900473ffffffffffffffffffffffffffffffffffffffff1684600401848154811061112f57fe5b906000526020600020015485600501858154811061114957fe5b9060005260206000200186600601868154811061116257fe5b9060005260206000200187600201546040518663ffffffff1660e01b815260040161119195949392919061482b565b600060405180830381600087803b1580156111ab57600080fd5b505af11580156111bf573d6000803e3d6000fd5b505050508080600101915050611099565b507f789cf55be980739dad1d0699b93b58e806b51c9d96619bfa8fe0a28abaa7b30c836040516112009190614cf9565b60405180910390a1505050565b600360009054906101000a900473ffffffffffffffffffffffffffffffffffffffff1681565b60006040516112419061468f565b604051809103902060006040516112589190614641565b60405180910390206112686127a6565b3060405160200161127c9493929190614908565b60405160208183030381529060405280519060200120905060006040516112a2906146a4565b604051809103902087876040516020016112be9392919061494d565b604051602081830303815290604052805190602001209050600082826040516020016112eb929190614658565b6040516020818303038152906040528051906020012090506000600182888888604051600081526020016040526040516113289493929190614984565b6020604051602081039080840390855afa15801561134a573d6000803e3d6000fd5b505050602060405103519050600073ffffffffffffffffffffffffffffffffffffffff168173ffffffffffffffffffffffffffffffffffffffff1614156113c6576040517f08c379a00000000000000000000000000000000000000000000000000000000081526004016113bd90614c3e565b60405180910390fd5b6113d1818a8a612426565b505050505050505050565b600360009054906101000a900473ffffffffffffffffffffffffffffffffffffffff1673ffffffffffffffffffffffffffffffffffffffff163373ffffffffffffffffffffffffffffffffffffffff161461146c576040517f08c379a000000000000000000000000000000000000000000000000000000000815260040161146390614cbe565b60405180910390fd5b6000600360006101000a81548173ffffffffffffffffffffffffffffffffffffffff021916908373ffffffffffffffffffffffffffffffffffffffff160217905550565b6000600a905090565b600360009054906101000a900473ffffffffffffffffffffffffffffffffffffffff1673ffffffffffffffffffffffffffffffffffffffff163373ffffffffffffffffffffffffffffffffffffffff1614611549576040517f08c379a000000000000000000000000000000000000000000000000000000000815260040161154090614b5e565b60405180910390fd5b600160009054906101000a900473ffffffffffffffffffffffffffffffffffffffff1673ffffffffffffffffffffffffffffffffffffffff16633a66f901600160009054906101000a900473ffffffffffffffffffffffffffffffffffffffff166000856040516020016115bd91906146b9565b604051602081830303815290604052856040518563ffffffff1660e01b81526004016115ec94939291906146fd565b602060405180830381600087803b15801561160657600080fd5b505af115801561161a573d6000803e3d6000fd5b505050506040513d601f19601f8201168201806040525061163e91908101906133f8565b505050565b600069152d02c7e14af6800000905090565b600360009054906101000a900473ffffffffffffffffffffffffffffffffffffffff1673ffffffffffffffffffffffffffffffffffffffff163373ffffffffffffffffffffffffffffffffffffffff16146116e5576040517f08c379a00000000000000000000000000000000000000000000000000000000081526004016116dc90614a5e565b60405180910390fd5b600160009054906101000a900473ffffffffffffffffffffffffffffffffffffffff1673ffffffffffffffffffffffffffffffffffffffff16630e18b6816040518163ffffffff1660e01b8152600401600060405180830381600087803b15801561174f57600080fd5b505af1158015611763573d6000803e3d6000fd5b50505050565b600160009054906101000a900473ffffffffffffffffffffffffffffffffffffffff1681565b60045481565b600061179f611643565b600260009054906101000a900473ffffffffffffffffffffffffffffffffffffffff1673ffffffffffffffffffffffffffffffffffffffff1663782d6fe1336117f260014361275c90919063ffffffff16565b6040518363ffffffff1660e01b815260040161180f9291906146d4565b60206040518083038186803b15801561182757600080fd5b505afa15801561183b573d6000803e3d6000fd5b505050506040513d601f19601f8201168201806040525061185f91908101906135a3565b6bffffffffffffffffffffffff16116118ad576040517f08c379a00000000000000000000000000000000000000000000000000000000081526004016118a490614c1e565b60405180910390fd5b845186511480156118bf575083518651145b80156118cc575082518651145b61190b576040517f08c379a000000000000000000000000000000000000000000000000000000000815260040161190290614b9e565b60405180910390fd5b600086511415611950576040517f08c379a000000000000000000000000000000000000000000000000000000000815260040161194790614bfe565b60405180910390fd5b6119586114b0565b8651111561199b576040517f08c379a000000000000000000000000000000000000000000000000000000000815260040161199290614b7e565b60405180910390fd5b6000600660003373ffffffffffffffffffffffffffffffffffffffff1673ffffffffffffffffffffffffffffffffffffffff16815260200190815260200160002054905060008114611aaa5760006119f282610c79565b905060016007811115611a0157fe5b816007811115611a0d57fe5b1415611a4e576040517f08c379a0000000000000000000000000000000000000000000000000000000008152600401611a4590614c5e565b60405180910390fd5b60006007811115611a5b57fe5b816007811115611a6757fe5b1415611aa8576040517f08c379a0000000000000000000000000000000000000000000000000000000008152600401611a9f90614b3e565b60405180910390fd5b505b600460008154809291906001019190505550611ac46129e4565b604051806101a0016040528060045481526020013373ffffffffffffffffffffffffffffffffffffffff16815260200160008152602001898152602001888152602001878152602001868152602001611b2d611b1e610c70565b4361270790919063ffffffff16565b8152602001611b65611b3d6106e6565b611b57611b48610c70565b4361270790919063ffffffff16565b61270790919063ffffffff16565b815260200160008152602001600081526020016000151581526020016000151581525090508060056000836000015181526020019081526020016000206000820151816000015560208201518160010160006101000a81548173ffffffffffffffffffffffffffffffffffffffff021916908373ffffffffffffffffffffffffffffffffffffffff160217905550604082015181600201556060820151816003019080519060200190611c19929190612a66565b506080820151816004019080519060200190611c36929190612af0565b5060a0820151816005019080519060200190611c53929190612b3d565b5060c0820151816006019080519060200190611c70929190612b9d565b5060e082015181600701556101008201518160080155610120820151816009015561014082015181600a015561016082015181600b0160006101000a81548160ff02191690831515021790555061018082015181600b0160016101000a81548160ff021916908315150217905550905050806000015160066000836020015173ffffffffffffffffffffffffffffffffffffffff1673ffffffffffffffffffffffffffffffffffffffff168152602001908152602001600020819055507fbaab6dcd2ae57433cc1372e25bc5139c3bd664075695546fde8821591a226e388160000151338a8a8a8a8a604051611d6c9796959493929190614d14565b60405180910390a180600001519250505095945050505050565b60046007811115611d9357fe5b611d9c82610c79565b6007811115611da757fe5b14611de7576040517f08c379a0000000000000000000000000000000000000000000000000000000008152600401611dde90614a7e565b60405180910390fd5b60006005600083815260200190815260200160002090506000611eb2600160009054906101000a900473ffffffffffffffffffffffffffffffffffffffff1673ffffffffffffffffffffffffffffffffffffffff16636a42b8f86040518163ffffffff1660e01b815260040160206040518083038186803b158015611e6b57600080fd5b505afa158015611e7f573d6000803e3d6000fd5b505050506040513d601f19601f82011682018060405250611ea3919081019061348b565b4261270790919063ffffffff16565b905060008090505b82600301805490508110156120975761208a836003018281548110611edb57fe5b9060005260206000200160009054906101000a900473ffffffffffffffffffffffffffffffffffffffff16846004018381548110611f1557fe5b9060005260206000200154856005018481548110611f2f57fe5b906000526020600020018054600181600116156101000203166002900480601f016020809104026020016040519081016040528092919081815260200182805460018160011615610100020316600290048015611fcd5780601f10611fa257610100808354040283529160200191611fcd565b820191906000526020600020905b815481529060010190602001808311611fb057829003601f168201915b5050505050866006018581548110611fe157fe5b906000526020600020018054600181600116156101000203166002900480601f01602080910402602001604051908101604052809291908181526020018280546001816001161561010002031660029004801561207f5780601f106120545761010080835404028352916020019161207f565b820191906000526020600020905b81548152906001019060200180831161206257829003601f168201915b5050505050866127b3565b8080600101915050611eba565b508082600201819055507f9a2e42fd6722813d69113e7d0079d3d940171428df7373df9c7f7617cfda289283826040516120d2929190614e33565b60405180910390a1505050565b6040516120eb906146a4565b604051809103902081565b6120fe612bfd565b60056000848152602001908152602001600020600c0160008373ffffffffffffffffffffffffffffffffffffffff1673ffffffffffffffffffffffffffffffffffffffff1681526020019081526020016000206040518060600160405290816000820160009054906101000a900460ff161515151581526020016000820160019054906101000a900460ff161515151581526020016000820160029054906101000a90046bffffffffffffffffffffffff166bffffffffffffffffffffffff166bffffffffffffffffffffffff1681525050905092915050565b600560078111156121e557fe5b6121ee82610c79565b60078111156121f957fe5b14612239576040517f08c379a000000000000000000000000000000000000000000000000000000000815260040161223090614a9e565b60405180910390fd5b6000600560008381526020019081526020016000209050600181600b0160016101000a81548160ff02191690831515021790555060008090505b81600301805490508110156123ea57600160009054906101000a900473ffffffffffffffffffffffffffffffffffffffff1673ffffffffffffffffffffffffffffffffffffffff16630825f38f8360040183815481106122cf57fe5b90600052602060002001548460030184815481106122e957fe5b9060005260206000200160009054906101000a900473ffffffffffffffffffffffffffffffffffffffff1685600401858154811061232357fe5b906000526020600020015486600501868154811061233d57fe5b9060005260206000200187600601878154811061235657fe5b9060005260206000200188600201546040518763ffffffff1660e01b815260040161238595949392919061482b565b6000604051808303818588803b15801561239e57600080fd5b505af11580156123b2573d6000803e3d6000fd5b50505050506040513d6000823e3d601f19601f820116820180604052506123dc9190810190613421565b508080600101915050612273565b507f712ae1383f79ac853f8d882153778e0260ef8f03b504e2866e0593e04d2b291f8260405161241a9190614cf9565b60405180910390a15050565b6001600781111561243357fe5b61243c83610c79565b600781111561244757fe5b14612487576040517f08c379a000000000000000000000000000000000000000000000000000000000815260040161247e90614c9e565b60405180910390fd5b6000600560008481526020019081526020016000209050600081600c0160008673ffffffffffffffffffffffffffffffffffffffff1673ffffffffffffffffffffffffffffffffffffffff1681526020019081526020016000209050600015158160000160009054906101000a900460ff1615151461253b576040517f08c379a000000000000000000000000000000000000000000000000000000000815260040161253290614b1e565b60405180910390fd5b6000600260009054906101000a900473ffffffffffffffffffffffffffffffffffffffff1673ffffffffffffffffffffffffffffffffffffffff1663782d6fe18785600701546040518363ffffffff1660e01b815260040161259e92919061475c565b60206040518083038186803b1580156125b657600080fd5b505afa1580156125ca573d6000803e3d6000fd5b505050506040513d601f19601f820116820180604052506125ee91908101906135a3565b905083156126285761261b816bffffffffffffffffffffffff16846009015461270790919063ffffffff16565b8360090181905550612656565b61264d816bffffffffffffffffffffffff1684600a015461270790919063ffffffff16565b83600a01819055505b60018260000160006101000a81548160ff021916908315150217905550838260000160016101000a81548160ff021916908315150217905550808260000160026101000a8154816bffffffffffffffffffffffff02191690836bffffffffffffffffffffffff1602179055507f877856338e13f63d0c36822ff0ef736b80934cd90574a3a5bc9262c39d217c46868686846040516126f79493929190614785565b60405180910390a1505050505050565b600080828401905083811015612752576040517f08c379a000000000000000000000000000000000000000000000000000000000815260040161274990614abe565b60405180910390fd5b8091505092915050565b600061279e83836040518060400160405280601f81526020017f536166654d6174683a207375627472616374696f6e20756e646572666c6f7700815250612989565b905092915050565b6000804690508091505090565b600160009054906101000a900473ffffffffffffffffffffffffffffffffffffffff1673ffffffffffffffffffffffffffffffffffffffff1663f2b06537868686868660405160200161280a9594939291906147ca565b604051602081830303815290604052805190602001206040518263ffffffff1660e01b815260040161283c91906148ed565b60206040518083038186803b15801561285457600080fd5b505afa158015612868573d6000803e3d6000fd5b505050506040513d601f19601f8201168201806040525061288c91908101906133cf565b156128cc576040517f08c379a00000000000000000000000000000000000000000000000000000000081526004016128c390614bde565b60405180910390fd5b600160009054906101000a900473ffffffffffffffffffffffffffffffffffffffff1673ffffffffffffffffffffffffffffffffffffffff16633a66f90186868686866040518663ffffffff1660e01b815260040161292f9594939291906147ca565b602060405180830381600087803b15801561294957600080fd5b505af115801561295d573d6000803e3d6000fd5b505050506040513d601f19601f8201168201806040525061298191908101906133f8565b505050505050565b60008383111582906129d1576040517f08c379a00000000000000000000000000000000000000000000000000000000081526004016129c89190614a3c565b60405180910390fd5b5060008385039050809150509392505050565b604051806101a0016040528060008152602001600073ffffffffffffffffffffffffffffffffffffffff1681526020016000815260200160608152602001606081526020016060815260200160608152602001600081526020016000815260200160008152602001600081526020016000151581526020016000151581525090565b828054828255906000526020600020908101928215612adf579160200282015b82811115612ade5782518260006101000a81548173ffffffffffffffffffffffffffffffffffffffff021916908373ffffffffffffffffffffffffffffffffffffffff16021790555091602001919060010190612a86565b5b509050612aec9190612c30565b5090565b828054828255906000526020600020908101928215612b2c579160200282015b82811115612b2b578251825591602001919060010190612b10565b5b509050612b399190612c73565b5090565b828054828255906000526020600020908101928215612b8c579160200282015b82811115612b8b578251829080519060200190612b7b929190612c98565b5091602001919060010190612b5d565b5b509050612b999190612d18565b5090565b828054828255906000526020600020908101928215612bec579160200282015b82811115612beb578251829080519060200190612bdb929190612d44565b5091602001919060010190612bbd565b5b509050612bf99190612dc4565b5090565b604051806060016040528060001515815260200160001515815260200160006bffffffffffffffffffffffff1681525090565b612c7091905b80821115612c6c57600081816101000a81549073ffffffffffffffffffffffffffffffffffffffff021916905550600101612c36565b5090565b90565b612c9591905b80821115612c91576000816000905550600101612c79565b5090565b90565b828054600181600116156101000203166002900490600052602060002090601f016020900481019282601f10612cd957805160ff1916838001178555612d07565b82800160010185558215612d07579182015b82811115612d06578251825591602001919060010190612ceb565b5b509050612d149190612c73565b5090565b612d4191905b80821115612d3d5760008181612d349190612df0565b50600101612d1e565b5090565b90565b828054600181600116156101000203166002900490600052602060002090601f016020900481019282601f10612d8557805160ff1916838001178555612db3565b82800160010185558215612db3579182015b82811115612db2578251825591602001919060010190612d97565b5b509050612dc09190612c73565b5090565b612ded91905b80821115612de95760008181612de09190612e38565b50600101612dca565b5090565b90565b50805460018160011615610100020316600290046000825580601f10612e165750612e35565b601f016020900490600052602060002090810190612e349190612c73565b5b50565b50805460018160011615610100020316600290046000825580601f10612e5e5750612e7d565b601f016020900490600052602060002090810190612e7c9190612c73565b5b50565b600081359050612e8f8161532a565b92915050565b600082601f830112612ea657600080fd5b8135612eb9612eb482614e89565b614e5c565b91508181835260208401935060208101905083856020840282011115612ede57600080fd5b60005b83811015612f0e5781612ef48882612e80565b845260208401935060208301925050600181019050612ee1565b5050505092915050565b600082601f830112612f2957600080fd5b8135612f3c612f3782614eb1565b614e5c565b9150818183526020840193506020810190508360005b83811015612f825781358601612f6888826130d7565b845260208401935060208301925050600181019050612f52565b5050505092915050565b600082601f830112612f9d57600080fd5b8135612fb0612fab82614ed9565b614e5c565b9150818183526020840193506020810190508360005b83811015612ff65781358601612fdc888261317f565b845260208401935060208301925050600181019050612fc6565b5050505092915050565b600082601f83011261301157600080fd5b813561302461301f82614f01565b614e5c565b9150818183526020840193506020810190508385602084028201111561304957600080fd5b60005b83811015613079578161305f8882613227565b84526020840193506020830192505060018101905061304c565b5050505092915050565b60008135905061309281615341565b92915050565b6000815190506130a781615341565b92915050565b6000813590506130bc81615358565b92915050565b6000815190506130d181615358565b92915050565b600082601f8301126130e857600080fd5b81356130fb6130f682614f29565b614e5c565b9150808252602083016020830185838301111561311757600080fd5b6131228382846152c0565b50505092915050565b600082601f83011261313c57600080fd5b815161314f61314a82614f55565b614e5c565b9150808252602083016020830185838301111561316b57600080fd5b6131768382846152cf565b50505092915050565b600082601f83011261319057600080fd5b81356131a361319e82614f81565b614e5c565b915080825260208301602083018583830111156131bf57600080fd5b6131ca8382846152c0565b50505092915050565b600082601f8301126131e457600080fd5b81356131f76131f282614fad565b614e5c565b9150808252602083016020830185838301111561321357600080fd5b61321e8382846152c0565b50505092915050565b6000813590506132368161536f565b92915050565b60008151905061324b8161536f565b92915050565b60008135905061326081615386565b92915050565b6000815190506132758161539d565b92915050565b60006020828403121561328d57600080fd5b600061329b84828501612e80565b91505092915050565b600080604083850312156132b757600080fd5b60006132c585828601612e80565b92505060206132d685828601613227565b9150509250929050565b600080600080600060a086880312156132f857600080fd5b600086013567ffffffffffffffff81111561331257600080fd5b61331e88828901612e95565b955050602086013567ffffffffffffffff81111561333b57600080fd5b61334788828901613000565b945050604086013567ffffffffffffffff81111561336457600080fd5b61337088828901612f8c565b935050606086013567ffffffffffffffff81111561338d57600080fd5b61339988828901612f18565b925050608086013567ffffffffffffffff8111156133b657600080fd5b6133c2888289016131d3565b9150509295509295909350565b6000602082840312156133e157600080fd5b60006133ef84828501613098565b91505092915050565b60006020828403121561340a57600080fd5b6000613418848285016130c2565b91505092915050565b60006020828403121561343357600080fd5b600082015167ffffffffffffffff81111561344d57600080fd5b6134598482850161312b565b91505092915050565b60006020828403121561347457600080fd5b600061348284828501613227565b91505092915050565b60006020828403121561349d57600080fd5b60006134ab8482850161323c565b91505092915050565b600080604083850312156134c757600080fd5b60006134d585828601613227565b92505060206134e685828601612e80565b9150509250929050565b6000806040838503121561350357600080fd5b600061351185828601613227565b925050602061352285828601613083565b9150509250929050565b600080600080600060a0868803121561354457600080fd5b600061355288828901613227565b955050602061356388828901613083565b945050604061357488828901613251565b9350506060613585888289016130ad565b9250506080613596888289016130ad565b9150509295509295909350565b6000602082840312156135b557600080fd5b60006135c384828501613266565b91505092915050565b60006135d88383613633565b60208301905092915050565b60006135f08383613874565b905092915050565b60006136048383613a3f565b905092915050565b600061361883836145f6565b60208301905092915050565b61362d8161520c565b82525050565b61363c81615182565b82525050565b61364b81615182565b82525050565b600061365c82615058565b61366681856150e4565b935061367183614fd9565b8060005b838110156136a257815161368988826135cc565b9750613694836150b0565b925050600181019050613675565b5085935050505092915050565b60006136ba82615063565b6136c481856150f5565b9350836020820285016136d685614fe9565b8060005b8581101561371257848403895281516136f385826135e4565b94506136fe836150bd565b925060208a019950506001810190506136da565b50829750879550505050505092915050565b600061372f8261506e565b6137398185615106565b93508360208202850161374b85614ff9565b8060005b85811015613787578484038952815161376885826135f8565b9450613773836150ca565b925060208a0199505060018101905061374f565b50829750879550505050505092915050565b60006137a482615079565b6137ae8185615117565b93506137b983615009565b8060005b838110156137ea5781516137d1888261360c565b97506137dc836150d7565b9250506001810190506137bd565b5085935050505092915050565b61380081615194565b82525050565b61380f81615194565b82525050565b61381e816151a0565b82525050565b613835613830826151a0565b615302565b82525050565b60006138468261508f565b6138508185615139565b93506138608185602086016152cf565b6138698161530c565b840191505092915050565b600061387f82615084565b6138898185615128565b93506138998185602086016152cf565b6138a28161530c565b840191505092915050565b6000815460018116600081146138ca57600181146138ef57613933565b607f60028304166138db818761514a565b955060ff1983168652808601935050613933565b600282046138fd818761514a565b95506139088561502e565b60005b8281101561392a5781548189015260018201915060208101905061390b565b82880195505050505b505092915050565b600081546001811660008114613958576001811461397e576139c2565b607f60028304166139698187615139565b955060ff1983168652602086019350506139c2565b6002820461398c8187615139565b955061399785615019565b60005b828110156139b95781548189015260018201915060208101905061399a565b80880195505050505b505092915050565b6139d38161521e565b82525050565b6139e281615242565b82525050565b6139f181615266565b82525050565b613a0081615278565b82525050565b6000613a11826150a5565b613a1b8185615166565b9350613a2b8185602086016152cf565b613a348161530c565b840191505092915050565b6000613a4a8261509a565b613a548185615155565b9350613a648185602086016152cf565b613a6d8161530c565b840191505092915050565b6000613a838261509a565b613a8d8185615166565b9350613a9d8185602086016152cf565b613aa68161530c565b840191505092915050565b600081546001811660008114613ace5760018114613af457613b38565b607f6002830416613adf8187615166565b955060ff198316865260208601935050613b38565b60028204613b028187615166565b9550613b0d85615043565b60005b82811015613b2f57815481890152600182019150602081019050613b10565b80880195505050505b505092915050565b6000613b4d603983615166565b91507f476f7665726e6f72416c7068613a3a5f5f61636365707441646d696e3a20736560008301527f6e646572206d75737420626520676f7620677561726469616e000000000000006020830152604082019050919050565b6000613bb3604483615166565b91507f476f7665726e6f72416c7068613a3a71756575653a2070726f706f73616c206360008301527f616e206f6e6c792062652071756575656420696620697420697320737563636560208301527f65646564000000000000000000000000000000000000000000000000000000006040830152606082019050919050565b6000613c3f604583615166565b91507f476f7665726e6f72416c7068613a3a657865637574653a2070726f706f73616c60008301527f2063616e206f6e6c79206265206578656375746564206966206974206973207160208301527f75657565640000000000000000000000000000000000000000000000000000006040830152606082019050919050565b6000613ccb600283615177565b91507f19010000000000000000000000000000000000000000000000000000000000006000830152600282019050919050565b6000613d0b601b83615166565b91507f536166654d6174683a206164646974696f6e206f766572666c6f7700000000006000830152602082019050919050565b6000613d4b604c83615166565b91507f476f7665726e6f72416c7068613a3a5f5f6578656375746553657454696d656c60008301527f6f636b50656e64696e6741646d696e3a2073656e646572206d7573742062652060208301527f676f7620677561726469616e00000000000000000000000000000000000000006040830152606082019050919050565b6000613dd7601883615166565b91507f73657450656e64696e6741646d696e28616464726573732900000000000000006000830152602082019050919050565b6000613e17602983615166565b91507f476f7665726e6f72416c7068613a3a73746174653a20696e76616c696420707260008301527f6f706f73616c20696400000000000000000000000000000000000000000000006020830152604082019050919050565b6000613e7d602d83615166565b91507f476f7665726e6f72416c7068613a3a5f63617374566f74653a20766f7465722060008301527f616c726561647920766f746564000000000000000000000000000000000000006020830152604082019050919050565b6000613ee3605983615166565b91507f476f7665726e6f72416c7068613a3a70726f706f73653a206f6e65206c69766560008301527f2070726f706f73616c207065722070726f706f7365722c20666f756e6420616e60208301527f20616c72656164792070656e64696e672070726f706f73616c000000000000006040830152606082019050919050565b6000613f6f604a83615166565b91507f476f7665726e6f72416c7068613a3a5f5f717565756553657454696d656c6f6360008301527f6b50656e64696e6741646d696e3a2073656e646572206d75737420626520676f60208301527f7620677561726469616e000000000000000000000000000000000000000000006040830152606082019050919050565b6000613ffb602883615166565b91507f476f7665726e6f72416c7068613a3a70726f706f73653a20746f6f206d616e7960008301527f20616374696f6e730000000000000000000000000000000000000000000000006020830152604082019050919050565b6000614061604383615177565b91507f454950373132446f6d61696e28737472696e67206e616d652c75696e7432353660008301527f20636861696e49642c6164647265737320766572696679696e67436f6e74726160208301527f63742900000000000000000000000000000000000000000000000000000000006040830152604382019050919050565b60006140ed602783615177565b91507f42616c6c6f742875696e743235362070726f706f73616c49642c626f6f6c207360008301527f7570706f727429000000000000000000000000000000000000000000000000006020830152602782019050919050565b6000614153604483615166565b91507f476f7665726e6f72416c7068613a3a70726f706f73653a2070726f706f73616c60008301527f2066756e6374696f6e20696e666f726d6174696f6e206172697479206d69736d60208301527f61746368000000000000000000000000000000000000000000000000000000006040830152606082019050919050565b60006141df602f83615166565b91507f476f7665726e6f72416c7068613a3a63616e63656c3a2070726f706f7365722060008301527f61626f7665207468726573686f6c6400000000000000000000000000000000006020830152604082019050919050565b6000614245604483615166565b91507f476f7665726e6f72416c7068613a3a5f71756575654f725265766572743a207060008301527f726f706f73616c20616374696f6e20616c72656164792071756575656420617460208301527f20657461000000000000000000000000000000000000000000000000000000006040830152606082019050919050565b60006142d1602c83615166565b91507f476f7665726e6f72416c7068613a3a70726f706f73653a206d7573742070726f60008301527f7669646520616374696f6e7300000000000000000000000000000000000000006020830152604082019050919050565b6000614337603f83615166565b91507f476f7665726e6f72416c7068613a3a70726f706f73653a2070726f706f73657260008301527f20766f7465732062656c6f772070726f706f73616c207468726573686f6c64006020830152604082019050919050565b600061439d602f83615166565b91507f476f7665726e6f72416c7068613a3a63617374566f746542795369673a20696e60008301527f76616c6964207369676e617475726500000000000000000000000000000000006020830152604082019050919050565b6000614403605883615166565b91507f476f7665726e6f72416c7068613a3a70726f706f73653a206f6e65206c69766560008301527f2070726f706f73616c207065722070726f706f7365722c20666f756e6420616e60208301527f20616c7265616479206163746976652070726f706f73616c00000000000000006040830152606082019050919050565b600061448f603683615166565b91507f476f7665726e6f72416c7068613a3a63616e63656c3a2063616e6e6f7420636160008301527f6e63656c2065786563757465642070726f706f73616c000000000000000000006020830152604082019050919050565b60006144f5602a83615166565b91507f476f7665726e6f72416c7068613a3a5f63617374566f74653a20766f74696e6760008301527f20697320636c6f736564000000000000000000000000000000000000000000006020830152604082019050919050565b600061455b603683615166565b91507f476f7665726e6f72416c7068613a3a5f5f61626469636174653a2073656e646560008301527f72206d75737420626520676f7620677561726469616e000000000000000000006020830152604082019050919050565b6060820160008201516145ca60008501826137f7565b5060208201516145dd60208501826137f7565b5060408201516145f06040850182614632565b50505050565b6145ff816151dd565b82525050565b61460e816151dd565b82525050565b61461d816151e7565b82525050565b61462c816152ae565b82525050565b61463b816151f4565b82525050565b600061464d82846138ad565b915081905092915050565b600061466382613cbe565b915061466f8285613824565b60208201915061467f8284613824565b6020820191508190509392505050565b600061469a82614054565b9150819050919050565b60006146af826140e0565b9150819050919050565b60006020820190506146ce6000830184613642565b92915050565b60006040820190506146e96000830185613624565b6146f66020830184614605565b9392505050565b600060a0820190506147126000830187613642565b61471f60208301866139f7565b818103604083015261473081613dca565b90508181036060830152614744818561383b565b90506147536080830184614605565b95945050505050565b60006040820190506147716000830185613642565b61477e6020830184614605565b9392505050565b600060808201905061479a6000830187613642565b6147a76020830186614605565b6147b46040830185613806565b6147c16060830184614623565b95945050505050565b600060a0820190506147df6000830188613642565b6147ec6020830187614605565b81810360408301526147fe8186613a06565b90508181036060830152614812818561383b565b90506148216080830184614605565b9695505050505050565b600060a0820190506148406000830188613642565b61484d6020830187614605565b818103604083015261485f8186613ab1565b90508181036060830152614873818561393b565b90506148826080830184614605565b9695505050505050565b600060808201905081810360008301526148a68187613651565b905081810360208301526148ba8186613799565b905081810360408301526148ce8185613724565b905081810360608301526148e281846136af565b905095945050505050565b60006020820190506149026000830184613815565b92915050565b600060808201905061491d6000830187613815565b61492a6020830186613815565b6149376040830185614605565b6149446060830184613642565b95945050505050565b60006060820190506149626000830186613815565b61496f6020830185614605565b61497c6040830184613806565b949350505050565b60006080820190506149996000830187613815565b6149a66020830186614614565b6149b36040830185613815565b6149c06060830184613815565b95945050505050565b60006020820190506149de60008301846139ca565b92915050565b60006020820190506149f960008301846139d9565b92915050565b6000602082019050614a1460008301846139e8565b92915050565b60006020820190508181036000830152614a348184613a78565b905092915050565b60006020820190508181036000830152614a568184613a06565b905092915050565b60006020820190508181036000830152614a7781613b40565b9050919050565b60006020820190508181036000830152614a9781613ba6565b9050919050565b60006020820190508181036000830152614ab781613c32565b9050919050565b60006020820190508181036000830152614ad781613cfe565b9050919050565b60006020820190508181036000830152614af781613d3e565b9050919050565b60006020820190508181036000830152614b1781613e0a565b9050919050565b60006020820190508181036000830152614b3781613e70565b9050919050565b60006020820190508181036000830152614b5781613ed6565b9050919050565b60006020820190508181036000830152614b7781613f62565b9050919050565b60006020820190508181036000830152614b9781613fee565b9050919050565b60006020820190508181036000830152614bb781614146565b9050919050565b60006020820190508181036000830152614bd7816141d2565b9050919050565b60006020820190508181036000830152614bf781614238565b9050919050565b60006020820190508181036000830152614c17816142c4565b9050919050565b60006020820190508181036000830152614c378161432a565b9050919050565b60006020820190508181036000830152614c5781614390565b9050919050565b60006020820190508181036000830152614c77816143f6565b9050919050565b60006020820190508181036000830152614c9781614482565b9050919050565b60006020820190508181036000830152614cb7816144e8565b9050919050565b60006020820190508181036000830152614cd78161454e565b9050919050565b6000606082019050614cf360008301846145b4565b92915050565b6000602082019050614d0e6000830184614605565b92915050565b600060e082019050614d29600083018a614605565b614d366020830189613624565b8181036040830152614d488188613651565b90508181036060830152614d5c8187613799565b90508181036080830152614d708186613724565b905081810360a0830152614d8481856136af565b905081810360c0830152614d988184613a06565b905098975050505050505050565b600061012082019050614dbc600083018c614605565b614dc9602083018b613642565b614dd6604083018a614605565b614de36060830189614605565b614df06080830188614605565b614dfd60a0830187614605565b614e0a60c0830186614605565b614e1760e0830185613806565b614e25610100830184613806565b9a9950505050505050505050565b6000604082019050614e486000830185614605565b614e556020830184614605565b9392505050565b6000604051905081810181811067ffffffffffffffff82111715614e7f57600080fd5b8060405250919050565b600067ffffffffffffffff821115614ea057600080fd5b602082029050602081019050919050565b600067ffffffffffffffff821115614ec857600080fd5b602082029050602081019050919050565b600067ffffffffffffffff821115614ef057600080fd5b602082029050602081019050919050565b600067ffffffffffffffff821115614f1857600080fd5b602082029050602081019050919050565b600067ffffffffffffffff821115614f4057600080fd5b601f19601f8301169050602081019050919050565b600067ffffffffffffffff821115614f6c57600080fd5b601f19601f8301169050602081019050919050565b600067ffffffffffffffff821115614f9857600080fd5b601f19601f8301169050602081019050919050565b600067ffffffffffffffff821115614fc457600080fd5b601f19601f8301169050602081019050919050565b6000819050602082019050919050565b6000819050602082019050919050565b6000819050602082019050919050565b6000819050602082019050919050565b60008190508160005260206000209050919050565b60008190508160005260206000209050919050565b60008190508160005260206000209050919050565b600081519050919050565b600081519050919050565b600081519050919050565b600081519050919050565b600081519050919050565b600081519050919050565b600081519050919050565b600081519050919050565b6000602082019050919050565b6000602082019050919050565b6000602082019050919050565b6000602082019050919050565b600082825260208201905092915050565b600082825260208201905092915050565b600082825260208201905092915050565b600082825260208201905092915050565b600082825260208201905092915050565b600082825260208201905092915050565b600081905092915050565b600082825260208201905092915050565b600082825260208201905092915050565b600081905092915050565b600061518d826151bd565b9050919050565b60008115159050919050565b6000819050919050565b60008190506151b88261531d565b919050565b600073ffffffffffffffffffffffffffffffffffffffff82169050919050565b6000819050919050565b600060ff82169050919050565b60006bffffffffffffffffffffffff82169050919050565b60006152178261528a565b9050919050565b600061522982615230565b9050919050565b600061523b826151bd565b9050919050565b600061524d82615254565b9050919050565b600061525f826151bd565b9050919050565b6000615271826151aa565b9050919050565b6000615283826151dd565b9050919050565b60006152958261529c565b9050919050565b60006152a7826151bd565b9050919050565b60006152b9826151f4565b9050919050565b82818337600083830152505050565b60005b838110156152ed5780820151818401526020810190506152d2565b838111156152fc576000848401525b50505050565b6000819050919050565b6000601f19601f8301169050919050565b6008811061532757fe5b50565b61533381615182565b811461533e57600080fd5b50565b61534a81615194565b811461535557600080fd5b50565b615361816151a0565b811461536c57600080fd5b50565b615378816151dd565b811461538357600080fd5b50565b61538f816151e7565b811461539a57600080fd5b50565b6153a6816151f4565b81146153b157600080fd5b5056fea365627a7a723158200a7a84b142566847436bbffff99c30d23318b6242a19eb2c5c1f427caa1832c96c6578706572696d656e74616cf564736f6c63430005110040a265627a7a723158207a8be4b8544d11bcaeec0decfe0541109fe7844d0c1f0fd5f49f097727140dea64736f6c63430005110032",
  "compiler": {
    "name": "solc",
    "version": "0.5.17+commit.d19bba13.Emscripten.clang",
    "optimizer": {
      "enabled": false,
      "runs": 200
    },
    "evmVersion": "istanbul"
  }
}