{
  "fileName": "Factory.sol",
  "contractName": "VoteTokenDeployer",
  "source": "pragma solidity ^0.5.16;\n\nimport \"./GovernorAlpha.sol\";\nimport \"./Timelock.sol\";\nimport \"./VoteToken.sol\";\n\ninterface VoteTokenDeployerInterface {\n    function getPriorVotes(address account, uint256 blockNumber)\n        external\n        view\n        returns (uint96);\n}\n\ncontract GovernanceDeployer {\n    TimelockDeployer public timelockDeployer;\n    VoteTokenDeployer public voteTokenDeployer;\n    GovernorDeployer public governorDeployer;\n\n    bool initialized = false;\n\n    event governanceContractCreated(address contractAddress);\n    event governorDeployerCreated(address timelockDeployer, address voteTokenDeployer, address governorDeployer);\n\n    constructor() public {\n        timelockDeployer = new TimelockDeployer();\n        voteTokenDeployer = new VoteTokenDeployer();\n        governorDeployer = new GovernorDeployer();\n        emit governorDeployerCreated(address(timelockDeployer), address(voteTokenDeployer), address(governorDeployer));\n    }\n\n    function createGovernance(\n        address _guardian,\n        string memory _governorName,\n        uint256 _delay,\n        uint256 _gracePeriod,\n        uint256 _minDelay,\n        uint256 _maxDelay,\n        string memory _voteTokenName,\n        string memory _voteTokenSymbol\n    ) public returns (GovernorAlpha _governanceContract) {\n        Timelock _timelock = timelockDeployer.createTimelock(\n            _guardian,\n            _delay,\n            _gracePeriod,\n            _minDelay,\n            _maxDelay\n        );\n        VoteToken _voteToken = voteTokenDeployer.createStandardVoteToken(\n            _guardian,\n            _voteTokenName,\n            _voteTokenSymbol\n        );\n        GovernorAlpha _newGovernor = governorDeployer.createGovernanceContract(\n            address(_timelock),\n            address(_voteToken),\n            _guardian,\n            _governorName\n        );\n\n        emit governanceContractCreated(address(_newGovernor));\n        return _newGovernor;\n    }\n}\n\ncontract GovernorDeployer {\n    event governanceContractCreated(address governanceContractAddress);\n\n    function createGovernanceContract(\n        address _timelock,\n        address _voteToken,\n        address _guardian,\n        string memory _governorName\n    ) public returns (GovernorAlpha _governorAlpha) {\n        GovernorAlpha _newGovernor = new GovernorAlpha(\n            _timelock,\n            _voteToken,\n            _guardian,\n            _governorName\n        );\n        emit governanceContractCreated(address(_newGovernor));\n        return _newGovernor;\n    }\n}\n\ncontract TimelockDeployer {\n    event timelockCreated(address timelockAddress);\n\n    function createTimelock(\n        address _admin,\n        uint256 _delay,\n        uint256 _gracePeriod,\n        uint256 _minDelay,\n        uint256 _maxDelay\n    ) public returns (Timelock timelock) {\n        Timelock _timelock = new Timelock(\n            _admin,\n            _delay,\n            _gracePeriod,\n            _minDelay,\n            _maxDelay\n        );\n        emit timelockCreated(address(_timelock));\n        return _timelock;\n    }\n}\n\ncontract VoteTokenDeployer {\n    event voteTokenCreated(address voteTokenAddress);\n\n    function createStandardVoteToken(\n        address account,\n        string memory _name,\n        string memory _symbol\n    ) public returns (VoteToken _voteToken) {\n        return _createVoteToken(account, _name, _symbol, 18, 10000000e18);\n    }\n\n    function createCustomVoteToken(\n        address account,\n        string memory _name,\n        string memory _symbol,\n        uint8 _decimals,\n        uint256 _totalSupply\n    ) public returns (VoteToken _voteToken) {\n        return\n            _createVoteToken(account, _name, _symbol, _decimals, _totalSupply);\n    }\n\n    function _createVoteToken(\n        address account,\n        string memory _name,\n        string memory _symbol,\n        uint8 _decimals,\n        uint256 _totalSupply\n    ) internal returns (VoteToken _voteTokenAddress) {\n        VoteToken _voteToken = new VoteToken(\n            account,\n            _name,\n            _symbol,\n            _decimals,\n            _totalSupply\n        );\n        emit voteTokenCreated(address(_voteToken));\n        return _voteToken;\n    }\n}\n",
  "sourcePath": "contracts/Factory.sol",
  "abi": [
    {
      "anonymous": false,
      "inputs": [
        {
          "indexed": false,
          "internalType": "address",
          "name": "voteTokenAddress",
          "type": "address"
        }
      ],
      "name": "voteTokenCreated",
      "type": "event"
    },
    {
      "constant": false,
      "inputs": [
        {
          "internalType": "address",
          "name": "account",
          "type": "address"
        },
        {
          "internalType": "string",
          "name": "_name",
          "type": "string"
        },
        {
          "internalType": "string",
          "name": "_symbol",
          "type": "string"
        },
        {
          "internalType": "uint8",
          "name": "_decimals",
          "type": "uint8"
        },
        {
          "internalType": "uint256",
          "name": "_totalSupply",
          "type": "uint256"
        }
      ],
      "name": "createCustomVoteToken",
      "outputs": [
        {
          "internalType": "contract VoteToken",
          "name": "_voteToken",
          "type": "address"
        }
      ],
      "payable": false,
      "stateMutability": "nonpayable",
      "type": "function"
    },
    {
      "constant": false,
      "inputs": [
        {
          "internalType": "address",
          "name": "account",
          "type": "address"
        },
        {
          "internalType": "string",
          "name": "_name",
          "type": "string"
        },
        {
          "internalType": "string",
          "name": "_symbol",
          "type": "string"
        }
      ],
      "name": "createStandardVoteToken",
      "outputs": [
        {
          "internalType": "contract VoteToken",
          "name": "_voteToken",
          "type": "address"
        }
      ],
      "payable": false,
      "stateMutability": "nonpayable",
      "type": "function"
    }
  ],
  "bytecode": "0x608060405234801561001057600080fd5b506139d2806100206000396000f3fe608060405234801561001057600080fd5b50600436106100365760003560e01c8063458585b61461003b578063c70fb6c1146101ed575b600080fd5b6101ab6004803603606081101561005157600080fd5b81019080803573ffffffffffffffffffffffffffffffffffffffff1690602001909291908035906020019064010000000081111561008e57600080fd5b8201836020820111156100a057600080fd5b803590602001918460018302840111640100000000831117156100c257600080fd5b91908080601f016020809104026020016040519081016040528093929190818152602001838380828437600081840152601f19601f8201169050808301925050505050505091929192908035906020019064010000000081111561012557600080fd5b82018360208201111561013757600080fd5b8035906020019184600183028401116401000000008311171561015957600080fd5b91908080601f016020809104026020016040519081016040528093929190818152602001838380828437600081840152601f19601f8201169050808301925050505050505091929192905050506103b6565b604051808273ffffffffffffffffffffffffffffffffffffffff1673ffffffffffffffffffffffffffffffffffffffff16815260200191505060405180910390f35b610374600480360360a081101561020357600080fd5b81019080803573ffffffffffffffffffffffffffffffffffffffff1690602001909291908035906020019064010000000081111561024057600080fd5b82018360208201111561025257600080fd5b8035906020019184600183028401116401000000008311171561027457600080fd5b91908080601f016020809104026020016040519081016040528093929190818152602001838380828437600081840152601f19601f820116905080830192505050505050509192919290803590602001906401000000008111156102d757600080fd5b8201836020820111156102e957600080fd5b8035906020019184600183028401116401000000008311171561030b57600080fd5b91908080601f016020809104026020016040519081016040528093929190818152602001838380828437600081840152601f19601f820116905080830192505050505050509192919290803560ff169060200190929190803590602001909291905050506103da565b604051808273ffffffffffffffffffffffffffffffffffffffff1673ffffffffffffffffffffffffffffffffffffffff16815260200191505060405180910390f35b60006103d184848460126a084595161401484a0000006103f4565b90509392505050565b60006103e986868686866103f4565b905095945050505050565b6000808686868686604051610408906105b9565b808673ffffffffffffffffffffffffffffffffffffffff1673ffffffffffffffffffffffffffffffffffffffff16815260200180602001806020018560ff1660ff168152602001848152602001838103835287818151815260200191508051906020019080838360005b8381101561048d578082015181840152602081019050610472565b50505050905090810190601f1680156104ba5780820380516001836020036101000a031916815260200191505b50838103825286818151815260200191508051906020019080838360005b838110156104f35780820151818401526020810190506104d8565b50505050905090810190601f1680156105205780820380516001836020036101000a031916815260200191505b50975050505050505050604051809103906000f080158015610546573d6000803e3d6000fd5b5090507ff3599e2153cbca85fe23df415abbc8f2f4454f8b15dd5d63aeb06c21baf1561281604051808273ffffffffffffffffffffffffffffffffffffffff1673ffffffffffffffffffffffffffffffffffffffff16815260200191505060405180910390a18091505095945050505050565b6133d7806105c78339019056fe60806040523480156200001157600080fd5b50604051620033d7380380620033d78339818101604052620000379190810190620002c0565b83600090805190602001906200004f92919062000170565b5082600190805190602001906200006892919062000170565b5081600260006101000a81548160ff021916908360ff16021790555080600381905550600354600560008773ffffffffffffffffffffffffffffffffffffffff1673ffffffffffffffffffffffffffffffffffffffff16815260200190815260200160002060006101000a8154816bffffffffffffffffffffffff02191690836bffffffffffffffffffffffff1602179055508473ffffffffffffffffffffffffffffffffffffffff16600073ffffffffffffffffffffffffffffffffffffffff167fddf252ad1be2c89b69c2b068fc378daa952ba7f163c4a11628f55a4df523b3ef6003546040516200015d919062000385565b60405180910390a35050505050620004cc565b828054600181600116156101000203166002900490600052602060002090601f016020900481019282601f10620001b357805160ff1916838001178555620001e4565b82800160010185558215620001e4579182015b82811115620001e3578251825591602001919060010190620001c6565b5b509050620001f39190620001f7565b5090565b6200021c91905b8082111562000218576000816000905550600101620001fe565b5090565b90565b60008151905062000230816200047e565b92915050565b600082601f8301126200024857600080fd5b81516200025f6200025982620003d0565b620003a2565b915080825260208301602083018583830111156200027c57600080fd5b6200028983828462000448565b50505092915050565b600081519050620002a38162000498565b92915050565b600081519050620002ba81620004b2565b92915050565b600080600080600060a08688031215620002d957600080fd5b6000620002e9888289016200021f565b955050602086015167ffffffffffffffff8111156200030757600080fd5b620003158882890162000236565b945050604086015167ffffffffffffffff8111156200033357600080fd5b620003418882890162000236565b93505060606200035488828901620002a9565b9250506080620003678882890162000292565b9150509295509295909350565b6200037f8162000431565b82525050565b60006020820190506200039c600083018462000374565b92915050565b6000604051905081810181811067ffffffffffffffff82111715620003c657600080fd5b8060405250919050565b600067ffffffffffffffff821115620003e857600080fd5b601f19601f8301169050602081019050919050565b60006200040a8262000411565b9050919050565b600073ffffffffffffffffffffffffffffffffffffffff82169050919050565b6000819050919050565b600060ff82169050919050565b60005b83811015620004685780820151818401526020810190506200044b565b8381111562000478576000848401525b50505050565b6200048981620003fd565b81146200049557600080fd5b50565b620004a38162000431565b8114620004af57600080fd5b50565b620004bd816200043b565b8114620004c957600080fd5b50565b612efb80620004dc6000396000f3fe608060405234801561001057600080fd5b50600436106101215760003560e01c806370a08231116100ad578063b4b5ea5711610071578063b4b5ea5714610358578063c3cda52014610388578063dd62ed3e146103a4578063e7a324dc146103d4578063f1127ed8146103f257610121565b806370a082311461027a578063782d6fe1146102aa5780637ecebe00146102da57806395d89b411461030a578063a9059cbb1461032857610121565b806323b872dd116100f457806323b872dd146101b0578063313ce567146101e0578063587cde1e146101fe5780635c19a95c1461022e5780636fcfff451461024a57610121565b806306fdde0314610126578063095ea7b31461014457806318160ddd1461017457806320606b7014610192575b600080fd5b61012e610423565b60405161013b91906129be565b60405180910390f35b61015e60048036036101599190810190612200565b6104c1565b60405161016b91906128b9565b60405180910390f35b61017c610654565b6040516101899190612ac2565b60405180910390f35b61019a61065a565b6040516101a791906128d4565b60405180910390f35b6101ca60048036036101c591908101906121b1565b610671565b6040516101d791906128b9565b60405180910390f35b6101e8610905565b6040516101f59190612b21565b60405180910390f35b6102186004803603610213919081019061214c565b610918565b604051610225919061289e565b60405180910390f35b6102486004803603610243919081019061214c565b61094b565b005b610264600480360361025f919081019061214c565b610958565b6040516102719190612add565b60405180910390f35b610294600480360361028f919081019061214c565b61097b565b6040516102a19190612ac2565b60405180910390f35b6102c460048036036102bf9190810190612200565b6109ea565b6040516102d19190612b57565b60405180910390f35b6102f460048036036102ef919081019061214c565b610dfd565b6040516103019190612ac2565b60405180910390f35b610312610e15565b60405161031f91906129be565b60405180910390f35b610342600480360361033d9190810190612200565b610eb3565b60405161034f91906128b9565b60405180910390f35b610372600480360361036d919081019061214c565b610ef0565b60405161037f9190612b57565b60405180910390f35b6103a2600480360361039d919081019061223c565b610fde565b005b6103be60048036036103b99190810190612175565b61125b565b6040516103cb9190612ac2565b60405180910390f35b6103dc611308565b6040516103e991906128d4565b60405180910390f35b61040c600480360361040791908101906122c5565b61131f565b60405161041a929190612af8565b60405180910390f35b60008054600181600116156101000203166002900480601f0160208091040260200160405190810160405280929190818152602001828054600181600116156101000203166002900480156104b95780601f1061048e576101008083540402835291602001916104b9565b820191906000526020600020905b81548152906001019060200180831161049c57829003601f168201915b505050505081565b6000807fffffffffffffffffffffffffffffffffffffffffffffffffffffffffffffffff831415610514577fffffffffffffffffffffffffffffffffffffffffffffffffffffffffffffffff9050610539565b61053683604051806060016040528060258152602001612d7e60259139611378565b90505b80600460003373ffffffffffffffffffffffffffffffffffffffff1673ffffffffffffffffffffffffffffffffffffffff16815260200190815260200160002060008673ffffffffffffffffffffffffffffffffffffffff1673ffffffffffffffffffffffffffffffffffffffff16815260200190815260200160002060006101000a8154816bffffffffffffffffffffffff02191690836bffffffffffffffffffffffff1602179055508373ffffffffffffffffffffffffffffffffffffffff163373ffffffffffffffffffffffffffffffffffffffff167f8c5be1e5ebec7d5bd14f71427d1e84f3dd0314c0f7b2291e5b200ac8c7c3b925836040516106419190612b3c565b60405180910390a3600191505092915050565b60035481565b60405161066690612874565b604051809103902081565b6000803390506000600460008773ffffffffffffffffffffffffffffffffffffffff1673ffffffffffffffffffffffffffffffffffffffff16815260200190815260200160002060008373ffffffffffffffffffffffffffffffffffffffff1673ffffffffffffffffffffffffffffffffffffffff16815260200190815260200160002060009054906101000a90046bffffffffffffffffffffffff169050600061073485604051806060016040528060258152602001612d7e60259139611378565b90508673ffffffffffffffffffffffffffffffffffffffff168373ffffffffffffffffffffffffffffffffffffffff16141580156107ae57507fffffffffffffffffffffffffffffffffffffffffffffffffffffffffffffffff6bffffffffffffffffffffffff16826bffffffffffffffffffffffff1614155b156108ec5760006107d883836040518060600160405280603d8152602001612e55603d91396113d6565b905080600460008a73ffffffffffffffffffffffffffffffffffffffff1673ffffffffffffffffffffffffffffffffffffffff16815260200190815260200160002060008673ffffffffffffffffffffffffffffffffffffffff1673ffffffffffffffffffffffffffffffffffffffff16815260200190815260200160002060006101000a8154816bffffffffffffffffffffffff02191690836bffffffffffffffffffffffff1602179055508373ffffffffffffffffffffffffffffffffffffffff168873ffffffffffffffffffffffffffffffffffffffff167f8c5be1e5ebec7d5bd14f71427d1e84f3dd0314c0f7b2291e5b200ac8c7c3b925836040516108e29190612b3c565b60405180910390a3505b6108f787878361144d565b600193505050509392505050565b600260009054906101000a900460ff1681565b60066020528060005260406000206000915054906101000a900473ffffffffffffffffffffffffffffffffffffffff1681565b610955338261182e565b50565b60086020528060005260406000206000915054906101000a900463ffffffff1681565b6000600560008373ffffffffffffffffffffffffffffffffffffffff1673ffffffffffffffffffffffffffffffffffffffff16815260200190815260200160002060009054906101000a90046bffffffffffffffffffffffff166bffffffffffffffffffffffff169050919050565b6000438210610a2e576040517f08c379a0000000000000000000000000000000000000000000000000000000008152600401610a2590612a42565b60405180910390fd5b6000600860008573ffffffffffffffffffffffffffffffffffffffff1673ffffffffffffffffffffffffffffffffffffffff16815260200190815260200160002060009054906101000a900463ffffffff16905060008163ffffffff161415610a9b576000915050610df7565b82600760008673ffffffffffffffffffffffffffffffffffffffff1673ffffffffffffffffffffffffffffffffffffffff16815260200190815260200160002060006001840363ffffffff1663ffffffff16815260200190815260200160002060000160009054906101000a900463ffffffff1663ffffffff1611610b9d57600760008573ffffffffffffffffffffffffffffffffffffffff1673ffffffffffffffffffffffffffffffffffffffff16815260200190815260200160002060006001830363ffffffff1663ffffffff16815260200190815260200160002060000160049054906101000a90046bffffffffffffffffffffffff16915050610df7565b82600760008673ffffffffffffffffffffffffffffffffffffffff1673ffffffffffffffffffffffffffffffffffffffff16815260200190815260200160002060008063ffffffff16815260200190815260200160002060000160009054906101000a900463ffffffff1663ffffffff161115610c1e576000915050610df7565b600080905060006001830390505b8163ffffffff168163ffffffff161115610d79576000600283830363ffffffff1681610c5457fe5b0482039050610c616120b5565b600760008973ffffffffffffffffffffffffffffffffffffffff1673ffffffffffffffffffffffffffffffffffffffff16815260200190815260200160002060008363ffffffff1663ffffffff1681526020019081526020016000206040518060400160405290816000820160009054906101000a900463ffffffff1663ffffffff1663ffffffff1681526020016000820160049054906101000a90046bffffffffffffffffffffffff166bffffffffffffffffffffffff166bffffffffffffffffffffffff1681525050905086816000015163ffffffff161415610d5157806020015195505050505050610df7565b86816000015163ffffffff161015610d6b57819350610d72565b6001820392505b5050610c2c565b600760008773ffffffffffffffffffffffffffffffffffffffff1673ffffffffffffffffffffffffffffffffffffffff16815260200190815260200160002060008363ffffffff1663ffffffff16815260200190815260200160002060000160049054906101000a90046bffffffffffffffffffffffff1693505050505b92915050565b60096020528060005260406000206000915090505481565b60018054600181600116156101000203166002900480601f016020809104026020016040519081016040528092919081815260200182805460018160011615610100020316600290048015610eab5780601f10610e8057610100808354040283529160200191610eab565b820191906000526020600020905b815481529060010190602001808311610e8e57829003601f168201915b505050505081565b600080610ed883604051806060016040528060268152602001612da360269139611378565b9050610ee533858361144d565b600191505092915050565b600080600860008473ffffffffffffffffffffffffffffffffffffffff1673ffffffffffffffffffffffffffffffffffffffff16815260200190815260200160002060009054906101000a900463ffffffff16905060008163ffffffff1611610f5a576000610fd6565b600760008473ffffffffffffffffffffffffffffffffffffffff1673ffffffffffffffffffffffffffffffffffffffff16815260200190815260200160002060006001830363ffffffff1663ffffffff16815260200190815260200160002060000160049054906101000a90046bffffffffffffffffffffffff165b915050919050565b6000604051610fec90612874565b604051809103902060006040516110039190612826565b60405180910390206110136119ee565b306040516020016110279493929190612934565b604051602081830303815290604052805190602001209050600060405161104d90612889565b604051809103902088888860405160200161106b94939291906128ef565b6040516020818303038152906040528051906020012090506000828260405160200161109892919061283d565b6040516020818303038152906040528051906020012090506000600182888888604051600081526020016040526040516110d59493929190612979565b6020604051602081039080840390855afa1580156110f7573d6000803e3d6000fd5b505050602060405103519050600073ffffffffffffffffffffffffffffffffffffffff168173ffffffffffffffffffffffffffffffffffffffff161415611173576040517f08c379a000000000000000000000000000000000000000000000000000000000815260040161116a90612a02565b60405180910390fd5b600960008273ffffffffffffffffffffffffffffffffffffffff1673ffffffffffffffffffffffffffffffffffffffff1681526020019081526020016000206000815480929190600101919050558914611202576040517f08c379a00000000000000000000000000000000000000000000000000000000081526004016111f990612a62565b60405180910390fd5b87421115611245576040517f08c379a000000000000000000000000000000000000000000000000000000000815260040161123c90612a22565b60405180910390fd5b61124f818b61182e565b50505050505050505050565b6000600460008473ffffffffffffffffffffffffffffffffffffffff1673ffffffffffffffffffffffffffffffffffffffff16815260200190815260200160002060008373ffffffffffffffffffffffffffffffffffffffff1673ffffffffffffffffffffffffffffffffffffffff16815260200190815260200160002060009054906101000a90046bffffffffffffffffffffffff166bffffffffffffffffffffffff16905092915050565b60405161131490612889565b604051809103902081565b6007602052816000526040600020602052806000526040600020600091509150508060000160009054906101000a900463ffffffff16908060000160049054906101000a90046bffffffffffffffffffffffff16905082565b60006c01000000000000000000000000831082906113cc576040517f08c379a00000000000000000000000000000000000000000000000000000000081526004016113c391906129e0565b60405180910390fd5b5082905092915050565b6000836bffffffffffffffffffffffff16836bffffffffffffffffffffffff161115829061143a576040517f08c379a000000000000000000000000000000000000000000000000000000000815260040161143191906129e0565b60405180910390fd5b5060008385039050809150509392505050565b600073ffffffffffffffffffffffffffffffffffffffff168373ffffffffffffffffffffffffffffffffffffffff1614156114bd576040517f08c379a00000000000000000000000000000000000000000000000000000000081526004016114b490612aa2565b60405180910390fd5b600073ffffffffffffffffffffffffffffffffffffffff168273ffffffffffffffffffffffffffffffffffffffff16141561152d576040517f08c379a000000000000000000000000000000000000000000000000000000000815260040161152490612a82565b60405180910390fd5b6115a7600560008573ffffffffffffffffffffffffffffffffffffffff1673ffffffffffffffffffffffffffffffffffffffff16815260200190815260200160002060009054906101000a90046bffffffffffffffffffffffff1682604051806060016040528060368152602001612d48603691396113d6565b600560008573ffffffffffffffffffffffffffffffffffffffff1673ffffffffffffffffffffffffffffffffffffffff16815260200190815260200160002060006101000a8154816bffffffffffffffffffffffff02191690836bffffffffffffffffffffffff16021790555061168e600560008473ffffffffffffffffffffffffffffffffffffffff1673ffffffffffffffffffffffffffffffffffffffff16815260200190815260200160002060009054906101000a90046bffffffffffffffffffffffff1682604051806060016040528060308152602001612e25603091396119fb565b600560008473ffffffffffffffffffffffffffffffffffffffff1673ffffffffffffffffffffffffffffffffffffffff16815260200190815260200160002060006101000a8154816bffffffffffffffffffffffff02191690836bffffffffffffffffffffffff1602179055508173ffffffffffffffffffffffffffffffffffffffff168373ffffffffffffffffffffffffffffffffffffffff167fddf252ad1be2c89b69c2b068fc378daa952ba7f163c4a11628f55a4df523b3ef836040516117589190612b3c565b60405180910390a3611829600660008573ffffffffffffffffffffffffffffffffffffffff1673ffffffffffffffffffffffffffffffffffffffff16815260200190815260200160002060009054906101000a900473ffffffffffffffffffffffffffffffffffffffff16600660008573ffffffffffffffffffffffffffffffffffffffff1673ffffffffffffffffffffffffffffffffffffffff16815260200190815260200160002060009054906101000a900473ffffffffffffffffffffffffffffffffffffffff1683611a71565b505050565b6000600660008473ffffffffffffffffffffffffffffffffffffffff1673ffffffffffffffffffffffffffffffffffffffff16815260200190815260200160002060009054906101000a900473ffffffffffffffffffffffffffffffffffffffff1690506000600560008573ffffffffffffffffffffffffffffffffffffffff1673ffffffffffffffffffffffffffffffffffffffff16815260200190815260200160002060009054906101000a90046bffffffffffffffffffffffff16905082600660008673ffffffffffffffffffffffffffffffffffffffff1673ffffffffffffffffffffffffffffffffffffffff16815260200190815260200160002060006101000a81548173ffffffffffffffffffffffffffffffffffffffff021916908373ffffffffffffffffffffffffffffffffffffffff1602179055508273ffffffffffffffffffffffffffffffffffffffff168273ffffffffffffffffffffffffffffffffffffffff168573ffffffffffffffffffffffffffffffffffffffff167f3134e8a2e6d97e929a7e54011ea5485d7d196dd5f0ba4d4ef95803e8e3fc257f60405160405180910390a46119e8828483611a71565b50505050565b6000804690508091505090565b6000808385019050846bffffffffffffffffffffffff16816bffffffffffffffffffffffff1610158390611a65576040517f08c379a0000000000000000000000000000000000000000000000000000000008152600401611a5c91906129e0565b60405180910390fd5b50809150509392505050565b8173ffffffffffffffffffffffffffffffffffffffff168373ffffffffffffffffffffffffffffffffffffffff1614158015611abb57506000816bffffffffffffffffffffffff16115b15611d6757600073ffffffffffffffffffffffffffffffffffffffff168373ffffffffffffffffffffffffffffffffffffffff1614611c13576000600860008573ffffffffffffffffffffffffffffffffffffffff1673ffffffffffffffffffffffffffffffffffffffff16815260200190815260200160002060009054906101000a900463ffffffff1690506000808263ffffffff1611611b5e576000611bda565b600760008673ffffffffffffffffffffffffffffffffffffffff1673ffffffffffffffffffffffffffffffffffffffff16815260200190815260200160002060006001840363ffffffff1663ffffffff16815260200190815260200160002060000160049054906101000a90046bffffffffffffffffffffffff165b90506000611c018285604051806060016040528060288152602001612dfd602891396113d6565b9050611c0f86848484611d6c565b5050505b600073ffffffffffffffffffffffffffffffffffffffff168273ffffffffffffffffffffffffffffffffffffffff1614611d66576000600860008473ffffffffffffffffffffffffffffffffffffffff1673ffffffffffffffffffffffffffffffffffffffff16815260200190815260200160002060009054906101000a900463ffffffff1690506000808263ffffffff1611611cb1576000611d2d565b600760008573ffffffffffffffffffffffffffffffffffffffff1673ffffffffffffffffffffffffffffffffffffffff16815260200190815260200160002060006001840363ffffffff1663ffffffff16815260200190815260200160002060000160049054906101000a90046bffffffffffffffffffffffff165b90506000611d548285604051806060016040528060278152602001612e92602791396119fb565b9050611d6285848484611d6c565b5050505b5b505050565b6000611d9043604051806060016040528060348152602001612dc96034913961205f565b905060008463ffffffff16118015611e2557508063ffffffff16600760008773ffffffffffffffffffffffffffffffffffffffff1673ffffffffffffffffffffffffffffffffffffffff16815260200190815260200160002060006001870363ffffffff1663ffffffff16815260200190815260200160002060000160009054906101000a900463ffffffff1663ffffffff16145b15611ec05781600760008773ffffffffffffffffffffffffffffffffffffffff1673ffffffffffffffffffffffffffffffffffffffff16815260200190815260200160002060006001870363ffffffff1663ffffffff16815260200190815260200160002060000160046101000a8154816bffffffffffffffffffffffff02191690836bffffffffffffffffffffffff160217905550612008565b60405180604001604052808263ffffffff168152602001836bffffffffffffffffffffffff16815250600760008773ffffffffffffffffffffffffffffffffffffffff1673ffffffffffffffffffffffffffffffffffffffff16815260200190815260200160002060008663ffffffff1663ffffffff16815260200190815260200160002060008201518160000160006101000a81548163ffffffff021916908363ffffffff16021790555060208201518160000160046101000a8154816bffffffffffffffffffffffff02191690836bffffffffffffffffffffffff16021790555090505060018401600860008773ffffffffffffffffffffffffffffffffffffffff1673ffffffffffffffffffffffffffffffffffffffff16815260200190815260200160002060006101000a81548163ffffffff021916908363ffffffff1602179055505b8473ffffffffffffffffffffffffffffffffffffffff167fdec2bacdd2f05b59de34da9b523dff8be42e5e38e818c82fdb0bae774387a7248484604051612050929190612b72565b60405180910390a25050505050565b6000640100000000831082906120ab576040517f08c379a00000000000000000000000000000000000000000000000000000000081526004016120a291906129e0565b60405180910390fd5b5082905092915050565b6040518060400160405280600063ffffffff16815260200160006bffffffffffffffffffffffff1681525090565b6000813590506120f281612cd4565b92915050565b60008135905061210781612ceb565b92915050565b60008135905061211c81612d02565b92915050565b60008135905061213181612d19565b92915050565b60008135905061214681612d30565b92915050565b60006020828403121561215e57600080fd5b600061216c848285016120e3565b91505092915050565b6000806040838503121561218857600080fd5b6000612196858286016120e3565b92505060206121a7858286016120e3565b9150509250929050565b6000806000606084860312156121c657600080fd5b60006121d4868287016120e3565b93505060206121e5868287016120e3565b92505060406121f68682870161210d565b9150509250925092565b6000806040838503121561221357600080fd5b6000612221858286016120e3565b92505060206122328582860161210d565b9150509250929050565b60008060008060008060c0878903121561225557600080fd5b600061226389828a016120e3565b965050602061227489828a0161210d565b955050604061228589828a0161210d565b945050606061229689828a01612137565b93505060806122a789828a016120f8565b92505060a06122b889828a016120f8565b9150509295509295509295565b600080604083850312156122d857600080fd5b60006122e6858286016120e3565b92505060206122f785828601612122565b9150509250929050565b61230a81612bed565b82525050565b61231981612bff565b82525050565b61232881612c0b565b82525050565b61233f61233a82612c0b565b612cb9565b82525050565b6000815460018116600081146123625760018114612387576123cb565b607f60028304166123738187612bc6565b955060ff19831686528086019350506123cb565b600282046123958187612bc6565b95506123a085612b9b565b60005b828110156123c2578154818901526001820191506020810190506123a3565b82880195505050505b505092915050565b60006123de82612bbb565b6123e88185612bd1565b93506123f8818560208601612c86565b61240181612cc3565b840191505092915050565b600061241782612bb0565b6124218185612bd1565b9350612431818560208601612c86565b61243a81612cc3565b840191505092915050565b6000612452602683612bd1565b91507f436f6d703a3a64656c656761746542795369673a20696e76616c69642073696760008301527f6e617475726500000000000000000000000000000000000000000000000000006020830152604082019050919050565b60006124b8602683612bd1565b91507f436f6d703a3a64656c656761746542795369673a207369676e6174757265206560008301527f78706972656400000000000000000000000000000000000000000000000000006020830152604082019050919050565b600061251e600283612be2565b91507f19010000000000000000000000000000000000000000000000000000000000006000830152600282019050919050565b600061255e602783612bd1565b91507f436f6d703a3a6765745072696f72566f7465733a206e6f74207965742064657460008301527f65726d696e6564000000000000000000000000000000000000000000000000006020830152604082019050919050565b60006125c4602283612bd1565b91507f436f6d703a3a64656c656761746542795369673a20696e76616c6964206e6f6e60008301527f63650000000000000000000000000000000000000000000000000000000000006020830152604082019050919050565b600061262a603a83612bd1565b91507f436f6d703a3a5f7472616e73666572546f6b656e733a2063616e6e6f7420747260008301527f616e7366657220746f20746865207a65726f20616464726573730000000000006020830152604082019050919050565b6000612690604383612be2565b91507f454950373132446f6d61696e28737472696e67206e616d652c75696e7432353660008301527f20636861696e49642c6164647265737320766572696679696e67436f6e74726160208301527f63742900000000000000000000000000000000000000000000000000000000006040830152604382019050919050565b600061271c603c83612bd1565b91507f436f6d703a3a5f7472616e73666572546f6b656e733a2063616e6e6f7420747260008301527f616e736665722066726f6d20746865207a65726f2061646472657373000000006020830152604082019050919050565b6000612782603a83612be2565b91507f44656c65676174696f6e28616464726573732064656c6567617465652c75696e60008301527f74323536206e6f6e63652c75696e7432353620657870697279290000000000006020830152603a82019050919050565b6127e481612c35565b82525050565b6127f381612c3f565b82525050565b61280281612c4f565b82525050565b61281181612c74565b82525050565b61282081612c5c565b82525050565b60006128328284612345565b915081905092915050565b600061284882612511565b9150612854828561232e565b602082019150612864828461232e565b6020820191508190509392505050565b600061287f82612683565b9150819050919050565b600061289482612775565b9150819050919050565b60006020820190506128b36000830184612301565b92915050565b60006020820190506128ce6000830184612310565b92915050565b60006020820190506128e9600083018461231f565b92915050565b6000608082019050612904600083018761231f565b6129116020830186612301565b61291e60408301856127db565b61292b60608301846127db565b95945050505050565b6000608082019050612949600083018761231f565b612956602083018661231f565b61296360408301856127db565b6129706060830184612301565b95945050505050565b600060808201905061298e600083018761231f565b61299b60208301866127f9565b6129a8604083018561231f565b6129b5606083018461231f565b95945050505050565b600060208201905081810360008301526129d8818461240c565b905092915050565b600060208201905081810360008301526129fa81846123d3565b905092915050565b60006020820190508181036000830152612a1b81612445565b9050919050565b60006020820190508181036000830152612a3b816124ab565b9050919050565b60006020820190508181036000830152612a5b81612551565b9050919050565b60006020820190508181036000830152612a7b816125b7565b9050919050565b60006020820190508181036000830152612a9b8161261d565b9050919050565b60006020820190508181036000830152612abb8161270f565b9050919050565b6000602082019050612ad760008301846127db565b92915050565b6000602082019050612af260008301846127ea565b92915050565b6000604082019050612b0d60008301856127ea565b612b1a6020830184612817565b9392505050565b6000602082019050612b3660008301846127f9565b92915050565b6000602082019050612b516000830184612808565b92915050565b6000602082019050612b6c6000830184612817565b92915050565b6000604082019050612b876000830185612808565b612b946020830184612808565b9392505050565b60008190508160005260206000209050919050565b600081519050919050565b600081519050919050565b600081905092915050565b600082825260208201905092915050565b600081905092915050565b6000612bf882612c15565b9050919050565b60008115159050919050565b6000819050919050565b600073ffffffffffffffffffffffffffffffffffffffff82169050919050565b6000819050919050565b600063ffffffff82169050919050565b600060ff82169050919050565b60006bffffffffffffffffffffffff82169050919050565b6000612c7f82612c5c565b9050919050565b60005b83811015612ca4578082015181840152602081019050612c89565b83811115612cb3576000848401525b50505050565b6000819050919050565b6000601f19601f8301169050919050565b612cdd81612bed565b8114612ce857600080fd5b50565b612cf481612c0b565b8114612cff57600080fd5b50565b612d0b81612c35565b8114612d1657600080fd5b50565b612d2281612c3f565b8114612d2d57600080fd5b50565b612d3981612c4f565b8114612d4457600080fd5b5056fe436f6d703a3a5f7472616e73666572546f6b656e733a207472616e7366657220616d6f756e7420657863656564732062616c616e6365436f6d703a3a617070726f76653a20616d6f756e7420657863656564732039362062697473436f6d703a3a7472616e736665723a20616d6f756e7420657863656564732039362062697473436f6d703a3a5f7772697465436865636b706f696e743a20626c6f636b206e756d62657220657863656564732033322062697473436f6d703a3a5f6d6f7665566f7465733a20766f746520616d6f756e7420756e646572666c6f7773436f6d703a3a5f7472616e73666572546f6b656e733a207472616e7366657220616d6f756e74206f766572666c6f7773436f6d703a3a7472616e7366657246726f6d3a207472616e7366657220616d6f756e742065786365656473207370656e64657220616c6c6f77616e6365436f6d703a3a5f6d6f7665566f7465733a20766f746520616d6f756e74206f766572666c6f7773a365627a7a7231582002097e509e76011e1511cea727951c0f940b2ce8add53732fc60535d98949b326c6578706572696d656e74616cf564736f6c63430005110040a265627a7a72315820591f440f42e0a19bebf478b1fa01e873ddfdabf8b71ce03e737d83c3fdbcb10a64736f6c63430005110032",
  "compiler": {
    "name": "solc",
    "version": "0.5.17+commit.d19bba13.Emscripten.clang",
    "optimizer": {
      "enabled": false,
      "runs": 200
    },
    "evmVersion": "istanbul"
  }
}